:100000000C9439000C9456000C9456000C94560035
:100010000C94C8060C9456000C9456000C94560090
:100020000C9456000C9456000C9456000C945600F8
:100030000C9456000C9456000C9456000C945907DE
:100040000C9456000C9456000C9456000C945600D8
:100050000C9456000C9456000C9456000C945600C8
:100060000C9456000C9456003F065B4F666D7D075E
:100070007F6F11241FBECFEFD8E0DEBFCDBF11E0F0
:10008000A0E0B1E0E4EFFFE002C005900D92A433E0
:10009000B107D9F725E0A4E3B1E001C01D92A73371
:1000A000B207E1F70E9469070C94F8070C9400006E
:1000B000CF93DF93EC0120E030E04AE06091000153
:1000C000809102010E948404C230D10579F188F444
:1000D000209701F1219709F045C08091000190918E
:1000E00001010196909301018093000182E090E06C
:1000F00037C0C330D10549F12497A1F580910201A1
:10010000909103010196909303018093020185E091
:1001100090E026C080910001909101010197909399
:1001200001018093000181E090E01AC080E490E03A
:10013000909303018093020180E290E0909301018B
:100140008093000183E090E00BC0809102019091C8
:1001500003010197909303018093020184E090E0F2
:100160000E94820621E030E04AE060910001809127
:100170000201DF91CF910C9484048EE58CBD229A0C
:10018000239A259A209A249808958EBD0DB407FECF
:10019000FDCF0895289A089528980895CF93C82FE1
:1001A0000E94CA0088EF0E94C5008C2F807F0E94A9
:1001B000C5008C2F8295807F0E94C500CF910C9442
:1001C000CC00CF93C82F0E94CA008AEF0E94C500BE
:1001D0008C2F807F0E94C5008C2F8295807F0E948B
:1001E000C500CF910C94CC0084E30E94CE0086E33E
:1001F0000C94CE0080E30C94CE00CF92DF92EF926D
:10020000FF920F931F93CF93DF930E94F40085E337
:10021000C82E81E0D82EF12C8F2D869598E0980F6E
:100220009068E92ED82FD0688601C0E0C03218F05F
:1002300080EE8C0F01C08C2F80680E94CE00C032EF
:1002400010F48D2F01C08E2D0E94CE00F801808108
:100250000E94E100F80181810E94E100CF5F005F10
:100260001F4FC03419F7F394F394F2E0CF0ED11C72
:1002700080E1F812D1CFDF91CF911F910F91FF90C4
:10028000EF90DF90CF90089540E054E06FEF70E082
:1002900085E391E00C94F10780E094E0E5E3F1E080
:1002A000DF019C011D9221503040E1F7089587FD48
:1002B00057C0603408F054C04130510529F0E8F0CF
:1002C00042305105A1F10895982F969596959695EF
:1002D00020E1629FF0011124EB5CFE4FE90FF11D5C
:1002E000877020E830E0A90102C0559547958A95AE
:1002F000E2F7CA019081892B32C0982F9695969586
:10030000969550E1659FF0011124EB5CFE4FE90FDB
:10031000F11D877020E830E0A90102C0559547958E
:100320008A95E2F7CA0180959081892318C0982F99
:1003300096959695969550E1659FF0011124EB5C9A
:10034000FE4FE90FF11D877020E830E0A90102C0DF
:10035000559547958A95E2F7CA0190818927808350
:1003600008954F925F926F927F928F929F92AF9279
:10037000BF92CF92DF92EF92FF920F931F93CF9392
:10038000DF93C82ED62E742E622EC42FD0E0C81B49
:10039000D109D7FF03C0D195C195D109E62CF12C25
:1003A000ED18F108F7FE03C0F194E194F108C714C9
:1003B00018F044244A9402C044244394D61418F0FC
:1003C00055245A9402C0552453944E018E189F0808
:1003D000AA24BB24AE18BF08A8016D2D8C2D0E9445
:1003E0005701C71002C0D61481F0C401880F991FAD
:1003F000A816B9061CF48E189F08C40C8C179D070C
:100400005CF78C0E9D1ED50CE7CFDF91CF911F912D
:100410000F91FF90EF90DF90CF90BF90AF909F90A3
:100420008F907F906F905F904F900895CF93DF9360
:10043000982F9770E0E8F0E002C0F595E7959A955F
:10044000E2F7461718F4962F642F492FBE2F21305C
:100450003105A9F098F12230310509F05EC070E055
:100460009B0194E0220F331F9A95E1F786958695BC
:100470008695280F311D80E090E050E03FC070E08D
:100480009B01E4E0220F331FEA95E1F786958695FC
:100490008695280F311D80E090E0C42FD0E0C6176C
:1004A000D707DCF1FC01E20FF31FEB5CFE4F50813C
:1004B0005B2B50836F5F7F4F4096F1CF70E09B01C5
:1004C00054E0220F331F5A95E1F78695869586955D
:1004D000280F311D80E090E0C42FD0E0E095C617D2
:1004E000D707DCF0DC01A20FB31FAB5CBE4F5C9101
:1004F0005E235C936F5F7F4F4096F1CF461757079F
:1005000064F0FC01E20FF31FEB5CFE4FA081AB2710
:10051000A0836F5F7F4F4096F1CFDF91CF91089519
:10052000CF92DF92EF92FF920F931F93CF93DF93BF
:10053000CDB7DEB760970FB6F894DEBF0FBECDBF64
:1005400098E0E4E2F1E0DE01199601900D929A95AF
:10055000E1F798E0ECE2F1E0DE01119601900D92F6
:100560009A95E1F7E82FE695E695E695A62FA695EC
:10057000A695A695F0E0CA2ED12C681718F4982FEE
:10058000862F692F2130310539F008F45CC0223004
:10059000310509F4BAC00DC150E0877067709A0147
:1005A000B4E0220F331FBA95E1F72B5C3E4FEC15F8
:1005B000FD05C9F42E0F3F1F09E010E00C0F1D1FB1
:1005C000080F111DA1E0B0E0AC0FBD1FA60FB11DBB
:1005D000BD01D8019C91DB018C918923D9019C91AB
:1005E000892B8C931DC089010E0F1F1FA9E0B0E05D
:1005F000AC0FBD1FA80FB11D9C91D8018C91892B08
:100600008C93C9018C0D9D1D21E030E02C0F3D1F06
:10061000260F311DD9013C91DC012C91232B2C9309
:10062000A4E0440F551FAA95E1F72FEF3196EC1582
:10063000FD050CF0BEC0CF01840F951F8B5C9E4F53
:10064000DC012C93F3CF50E087706770EC15FD054B
:1006500011F59A0174E0220F331F7A95E1F72B5CB4
:100660003E4F2E0F3F1F09E010E00C0F1D1F080F1B
:10067000111DA1E0B0E0AC0FBD1FA60FB11DBD0163
:10068000D8019C91DB018C9189238095D9019C91A3
:1006900089238C9328C08A0134E0000F111F3A95FA
:1006A000E1F70B5C1E4F7801EE0EFF1E29E030E0F3
:1006B0002C0F3D1F280F311DD9019C919095D7011A
:1006C0002C9192239C93C8018C0D9D1D21E030E05C
:1006D0002C0F3D1F260F311DD9012C912095DC01D7
:1006E0003C9123232C9324E0440F551F2A95E1F7D6
:1006F0003196EC15FD050CF05CC0CF01840F951F01
:100700008B5C9E4FDC011C92F3CF50E087706770CA
:100710009A0194E0220F331F9A95E1F72B5C3E4F2C
:10072000EC15FD05B9F42E0F3F1F09E010E00C0F8A
:100730001D1F080F111DA1E0B0E0AC0FBD1FA60FDB
:10074000B11DBD01D8019C91DB018C918923D90198
:100750009C911AC089010E0F1F1FA9E0B0E0AC0FD9
:10076000BD1FA80FB11D9C91D8018C9189278C9336
:100770002C0D3D1D81E090E08C0F9D1F860F911D7B
:10078000DC019C91D9018C9189278C9384E0440FE2
:10079000551F8A95E1F73196EC15FD0554F4CF010C
:1007A000840F951F8B5C9E4FDC012C9120952C9320
:1007B000F2CF60960FB6F894DEBF0FBECDBFDF91CB
:1007C000CF911F910F91FF90EF90DF90CF90089500
:1007D000CF92DF92EF92FF920F931F93CF93DF930D
:1007E000E82EC62FD42FF22E87FD48C0603408F0C3
:1007F00045C0842F90E08E0D911D8138910524F025
:10080000D0E8DE19D12C02C0DD24D3948F2D90E0E6
:100810008C0F911DCC24CA94CE0C8134910524F008
:1008200080E4F82EFC1A09C04FEF4F0D4C0F9801D1
:100830006C2D6D0F8E2D0E949002DC0D98014C2FB7
:100840006D2F8E2D0E9490028EEF8C0FF80ECF5FD1
:1008500098014F2D6C2F8E2D0E941602DD2071F015
:1008600098014F2D6C2F8D2FDF91CF911F910F91FC
:10087000FF90EF90DF90CF900C941602DF91CF9114
:100880001F910F91FF90EF90DF90CF900895AF925E
:10089000BF92CF92DF92FF920F931F93CF93DF937C
:1008A000F82E680187FD26C0603420F5842F90E083
:1008B0008F0D911D8138910514F040E84F19C62F16
:1008C000D0E0CE01820F911D8134910514F020E417
:1008D000261B5E01A20EB11C1FEF1F0D140FCA15BF
:1008E000DB0544F496014C2F612F8F2D0E9490025E
:1008F0002196F5CFDF91CF911F910F91FF90DF905F
:10090000CF90BF90AF9008952F923F924F925F92F9
:100910006F927F928F929F92AF92BF92CF92DF920F
:10092000EF92FF920F931F93CF93DF9300D000D0ED
:10093000CDB7DEB7782E662EB42E3C832B83042FE2
:1009400010E081E090E07C01E01AF10ACC24DD2483
:10095000C01AD10ACC0CDD1C642F660DA901872DAD
:100960000E945701662D6B194B815C81872D0E9477
:1009700057014B815C81662D8B2D870D0E9457019D
:100980004B815C81662D872D8B190E945701332482
:100990003394370C55245A94570CA12CB12C88242D
:1009A0008394912C862D87198A83A016B1060CF0AA
:1009B00050C0F7FC07C00150110982E0C80ED11CDD
:1009C000EC0CFD1C8FEFA81AB80A82E0880E911C6F
:1009D000E80CF91C4B815C81462C400E642D832D64
:1009E0000E9457014B815C81642D852D0E94570127
:1009F0004B815C81462C401A642D832D0E94570147
:100A00004B815C81642D852D0E9457014A80430CE7
:100A10004B815C81642D872D800F89830E94570153
:100A20004B815C81642D472C401A842D0E94570114
:100A30002A80250C4B815C81622D89810E9457019F
:100A40004B815C81622D842D0E94570133945A940E
:100A5000ACCF0F900F900F900F90DF91CF911F911F
:100A60000F91FF90EF90DF90CF90BF90AF909F904D
:100A70008F907F906F905F904F903F902F90089550
:100A80002F923F924F925F926F927F928F929F929E
:100A9000AF92BF92CF92DF92EF92FF920F931F938C
:100AA000CF93DF9300D01F92CDB7DEB7782E562EAE
:100AB00049836901841B642F660F6F5F680F452DA2
:100AC0000E9490029981892F90E09B838A8301E0A4
:100AD00010E0081B190B7C01F194E194F108EE0C75
:100AE000FF1C66246A94670C92E0492E470CA12CE7
:100AF000B12C88248394912C852D871989838A8130
:100B00009B81A816B906D4F517FD0AC08A819B817E
:100B100001979B838A8392E0E90EF11C0E0D1F1D45
:100B20008FEFA81AB80A92E0890E911C080D191DC2
:100B300096014A81450D642D862D0E9490022A80DF
:100B4000270C2394452D4A0D9601622D372C8A815E
:100B5000381A832D0E9490029601452D9A81491BD7
:100B6000642D862D0E9490024981460D9601622DCA
:100B7000832D0E9490026A944394C1CF0F900F90EE
:100B80000F90DF91CF911F910F91FF90EF90DF9029
:100B9000CF90BF90AF909F908F907F906F905F901D
:100BA0004F903F902F900895FF920F931F93CF93F4
:100BB000DF93D82F162FF42E052F0E94FA00113044
:100BC00059F038F0123059F0133059F4CD2FC8696C
:100BD00008C0CD2FC06805C0CD2FC06902C0CD2F81
:100BE000C8688C2F0E94CE00CF2DD02F89918823EA
:100BF00019F00E94E100FACFDF91CF911F910F9180
:100C0000FF90089581E00E94CE008FE39CE9019758
:100C1000F1F700C0000008952FEF81EE94E021501D
:100C200080409040E1F700C000000E94BD0080E3DA
:100C30000E94CE0082E00E94CE000E94020686E062
:100C40000E94CE008CE00C94CE005C980895CF9268
:100C5000DF92EF92FF920F931F93CF93DF938C015C
:100C6000D62F5B980E942506C0E0CD17E9F087E0FB
:100C7000C82ED12C7801EC0EF11C0E942506F7013C
:100C8000808190E00C2C02C0959587950A94E2F73C
:100C900080FF02C05A9A01C05A985C9AF1E0CF1ABC
:100CA000D10858F7CF5FE1CF5B9ADF91CF911F91C9
:100CB0000F91FF90EF90DF90CF900C942506CF938B
:100CC000DF9300D01F92CDB7DEB719821A821B8244
:100CD0008AB18C618AB95B980E9425065A988FE385
:100CE0009FE10197F1F700C0000063E0CE0101969B
:100CF0000E9427060F900F900F90DF91CF910895DB
:100D00000C945F060F931F93CF93DF9300D01F9235
:100D1000CDB7DEB7883E23E09207E8F419821A8245
:100D20001B8222E00AE010E0B8010E94BB07FC0130
:100D3000E859FF4FE491A1E0B0E0AC0FBD1FA20F56
:100D4000B11DEC93CB012150009771F763E0CE0108
:100D500001960E9427060F900F900F90DF91CF9180
:100D60001F910F91089538983A983B983C9839987C
:100D7000E8E6F0E0208122602083ECE6F0E02081CC
:100D80002F612083909336058093350578940895DC
:100D90001F920F920FB60F9211242F933F934F93F0
:100DA0005F936F937F938F939F93AF93BF93EF93D3
:100DB000FF9380916C00807E80936C002FEF8AE619
:100DC00093E0215080409040E1F700C00000309B4C
:100DD00009C0E0913505F091360561E070E080E0F2
:100DE00090E00995329B09C0E0913505F0913605F8
:100DF00061E070E081E090E00995339B09C0E091EB
:100E00003505F091360561E070E082E090E00995EB
:100E1000349B09C0E0913505F091360561E070E042
:100E200083E090E00995319B09C0E0913505F09190
:100E3000360561E070E084E090E0099580916C00F7
:100E40008F6180936C00FF91EF91BF91AF919F9163
:100E50008F917F916F915F914F913F912F910F9063
:100E60000FBE0F901F901895559A84B5826184BD6E
:100E700085B5856085BDEEE6F0E080818460808385
:100E800018BC789408950895A0E0B0E09C01AD01ED
:100E90008BE0220F331F441F551F8A95D1F760E066
:100EA00074E284EF90E00E94CF0721502093340138
:100EB00008951F920F920FB60F9211248F9316BCB4
:100EC0008091340188BD8F910F900FBE0F901F90BD
:100ED0001895CF93DF93CDB7DEB7A0970FB6F894F0
:100EE000DEBF0FBECDBF0E940C060E9402060E940C
:100EF0004C012FEF83ED90E3215080409040E1F7CB
:100F000000C000000E94800688E590E00E94B306C1
:100F100087EE93E00E9482060E94340780E2E4E0BC
:100F2000F1E0DE01119601900D928A95E1F780E0E3
:100F300090E00E9444076E01E1E2CE0ED11C8E01CA
:100F40000F5F1F4FF801E190F1908F01C7010E94E0
:100F50008206C7010E944407FFEF23ED80E3F150B2
:100F600020408040E1F700C000000C151D0551F73E
:100F70000E94FD00E4CFAA1BBB1B51E107C0AA1FC2
:100F8000BB1FA617B70710F0A61BB70B881F991F2A
:100F90005A95A9F780959095BC01CD010895A1E2DD
:100FA0001A2EAA1BBB1BFD010DC0AA1FBB1FEE1FE3
:100FB000FF1FA217B307E407F50720F0A21BB30B2E
:100FC000E40BF50B661F771F881F991F1A9469F7AA
:100FD00060957095809590959B01AC01BD01CF0106
:100FE0000895DC0101C06D9341505040E0F7089531
:040FF000F894FFCFA3
:100FF40020004000060126014A015D018801B80174
:10100400EE010B020B02EE01B80188015D014A01F9
:1010140026010601FF7F3F1F0F07030180C0E0F098
:04102400F8FCFEFFD7
:00000001FF
