:100000000C9434000C9451000C9451000C94510049
:100010000C9451000C9451000C9451000C9451001C
:100020000C9451000C9451000C9451000C9451000C
:100030000C9451000C9451000C9451000C945100FC
:100040000C9451000C9451000C9451000C945100EC
:100050000C9451000C9451000C9451000C945100DC
:100060000C9451000C94510011241FBECFEFD8E026
:10007000DEBFCDBF11E0A0E0B1E0EAEEF5E002C0E6
:1000800005900D92A430B107D9F725E0A4E0B1E0C6
:1000900001C01D92A430B207E1F70E94B9020C948E
:1000A000F3020C9400008EE58CBD229A239A259AC7
:1000B000209A249808958EBD0DB407FEFDCF0895B3
:1000C000289A089528980895CF93C82F0E94600019
:1000D00088EF0E945B008C2F807F0E945B008C2F3A
:1000E0008295807F0E945B00CF910C946200CF9339
:1000F000C82F0E9460008AEF0E945B008C2F807FD7
:100100000E945B008C2F8295807F0E945B00CF91C4
:100110000C94620084E30E94640086E30C94640003
:1001200080E30C946400CF92DF92EF92FF920F93E2
:100130001F93CF93DF930E948A0084E0C82E81E052
:10014000D82EF12C8F2D869598E0980F9068E92E87
:10015000D82FD0688601C0E0C03218F080EE8C0F36
:1001600001C08C2F80680E946400C03210F48D2F73
:1001700001C08E2D0E946400F80180810E947700EA
:10018000F80181810E947700CF5F005F1F4FC0346C
:1001900019F7F394F394F2E0CF0ED11C80E1F8123A
:1001A000D1CFDF91CF911F910F91FF90EF90DF9012
:1001B000CF90089540E054E06FEF70E084E091E06C
:1001C0000C94EC0280E094E0E4E0F1E0DF019C01BB
:1001D0001D9221503040E1F7089587FD57C06034EB
:1001E00008F054C04130510529F0E8F04230510583
:1001F000A1F10895982F96959695969520E1629F86
:10020000F0011124EC5FFE4FE90FF11D877020E82B
:1002100030E0A90102C0559547958A95E2F7CA01D9
:100220009081892B32C0982F96959695969550E19E
:10023000659FF0011124EC5FFE4FE90FF11D8770FF
:1002400020E830E0A90102C0559547958A95E2F76C
:10025000CA0180959081892318C0982F969596950C
:10026000969550E1659FF0011124EC5FFE4FE90F78
:10027000F11D877020E830E0A90102C0559547952F
:100280008A95E2F7CA0190818927808308954F9269
:100290005F926F927F928F929F92AF92BF92CF9216
:1002A000DF92EF92FF920F931F93CF93DF93C82EAD
:1002B000D62E742E622EC42FD0E0C81BD109D7FFD2
:1002C00003C0D195C195D109E62CF12CED18F108A8
:1002D000F7FE03C0F194E194F108C71418F0442428
:1002E0004A9402C044244394D61418F055245A94D6
:1002F00002C0552453944E018E189F08AA24BB2493
:10030000AE18BF08A8016D2D8C2D0E94ED00C710FE
:1003100002C0D61481F0C401880F991FA816B9062F
:100320001CF48E189F08C40C8C179D075CF78C0E6C
:100330009D1ED50CE7CFDF91CF911F910F91FF90BC
:10034000EF90DF90CF90BF90AF909F908F907F9075
:100350006F905F904F9008952F923F924F925F92CF
:100360006F927F928F929F92AF92BF92CF92DF92C5
:10037000EF92FF920F931F93CF93DF9300D000D0A3
:10038000CDB7DEB7782E662EB42E3C832B83042F98
:1003900010E081E090E07C01E01AF10ACC24DD2439
:1003A000C01AD10ACC0CDD1C642F660DA901872D63
:1003B0000E94ED00662D6B194B815C81872D0E9498
:1003C000ED004B815C81662D8B2D870D0E94ED0029
:1003D0004B815C81662D872D8B190E94ED003324A3
:1003E0003394370C55245A94570CA12CB12C8824E3
:1003F0008394912C862D87198A83A016B1060CF060
:1004000050C0F7FC07C00150110982E0C80ED11C92
:10041000EC0CFD1C8FEFA81AB80A82E0880E911C24
:10042000E80CF91C4B815C81462C400E642D832D19
:100430000E94ED004B815C81642D852D0E94ED00B2
:100440004B815C81462C401A642D832D0E94ED0067
:100450004B815C81642D852D0E94ED004A80430C08
:100460004B815C81642D872D800F89830E94ED0074
:100470004B815C81642D472C401A842D0E94ED0035
:100480002A80250C4B815C81622D89810E94ED00C0
:100490004B815C81622D842D0E94ED0033945A942F
:1004A000ACCF0F900F900F900F90DF91CF911F91D5
:1004B0000F91FF90EF90DF90CF90BF90AF909F9003
:1004C0008F907F906F905F904F903F902F90089506
:1004D000FF920F931F93CF93DF93D82F162FF42EF5
:1004E000052F0E949000113059F038F0123059F069
:1004F000133059F4CD2FC86908C0CD2FC06805C08E
:10050000CD2FC06902C0CD2FC8688C2F0E94640017
:10051000CF2DD02F8991882319F00E947700FACF30
:10052000DF91CF911F910F91FF90089581E00E947C
:1005300064008FE39FE10197F1F700C00000089588
:100540002FEF81EE94E0215080409040E1F700C011
:1005500000000E94530080E30E94640082E00E9439
:1005600064000E94960286E00E9464008CE00C9475
:1005700064000E94A0020E9496020E94E2000E9473
:1005800093002FEF83ED90E3215080409040E1F7FE
:1005900000C0000040E051E062E080E00E9468029C
:1005A000C0E0D0E000E010E0C017D10759F421E02E
:1005B00030E04FE16C2F8C2F0E94AC010E94930021
:1005C0000E94E2000F5F1F4F0034110569F7249667
:1005D000C038D10539F7DECFDC0101C06D93415041
:0A05E0005040E0F70895F894FFCFB3
:0405EA005642000075
:00000001FF
