:100000000C94E4010C9401020C9401020C94010282
:100010000C9436080C9401020C9401020C94010219
:100020000C9401020C9401020C9401020C94010244
:100030000C9401020C9401020C9401020C94E90846
:100040000C9401020C9401020C9401020C94010224
:100050000C9401020C9401020C9401020C94010214
:100060000C9401020C9401023F065B4F666D7D0704
:100070007F6F99009200890084007C00352E4368D0
:1000800065737300342E584F00332E5465747269B3
:100090007300322E506F6E6700312E536E616B65A8
:1000A000006400010032000100640001006400648B
:1000B000003200320032003200320064006400641A
:1000C00000640064006400640096006400640064DE
:1000D0000064006400640064006400010064006463
:1000E00000640064006400640064006400960032F0
:1000F000003200640001003200010064000100646D
:1001000000640064006400640064006400640064CF
:10011000006400640064006400640096006400648D
:1001200000640064004A0100004A0100004A010026
:10013000004A01EE017201880172014A0126017232
:10014000014A0172014A0126014A017201880172C5
:10015000014A012601F7009302EE014B02EE010075
:1001600000EE01B80188014A018801B801EE010BD7
:1001700002B801880172014A0100004A0100004AE8
:100180000100004A01EE017201880172014A012654
:100190000172014A0172014A0126014A0172018875
:1001A0000172014A012601F70032004B0064000190
:1001B0000064000100640032004B004B00640064E6
:1001C0000032004B00640064000000640001006421
:1001D00000010064000100DC0006014A0100004A41
:1001E0000100004A017201880172012601F7000630
:1001F000014A010601DC000000D0000000D0000030
:1002000000D000000064003200320064003200328E
:10021000006400640032006400640032003200199F
:1002200000190019006400640064006400320032A8
:100230000064003200640064003200320032006466
:10024000006400320032006400640064006400C88E
:1002500000C800C800C800C800C800C800C800C85E
:1002600000C800C800C80064006400C800C8004A94
:1002700001F700060126010601F700DC00DC00069C
:10028000014A0126010601F700060126014A01067E
:1002900001B801B80126015D01B80188015D014A7C
:1002A0000106014A0126010601F700F700060126B2
:1002B000014A010601DC00DC004A0106012601F7C3
:1002C000000601DC00D000F7004A0106012601F714
:1002D0000006014A01B8019F01E202DD024F5645C6
:1002E000520047414D450042033A0333032A03229B
:1002F0000317030D030303F902382E5350415245EF
:10030000203300372E5350415245203200362E53B1
:1003100050415245203100352E53455454494E47E3
:100320005300342E5049414E4F00332E5445545201
:10033000495300322E504F4E4700312E534E414B01
:1003400045004D454E550054034B032020202020EE
:100350002020200047414D4520424F580064004B6B
:100360000064000100640001006400320032006497
:10037000006400640032004B0064006400640064A8
:100380000064000100640001006400060137018878
:100390000100008801000088019F01D2019F015DDA
:1003A0000126013701880137010601D000E9000666
:1003B000010000060100000601424F580047414D70
:1003C00045004D454E55000011241FBECFEFD8E02B
:1003D000DEBFCDBF11E0A0E0B1E0E0EEF7E102C08A
:1003E00005900D92AA32B107D9F725E0AAE2B1E053
:1003F00001C01D92A033B207E1F70E94990B0C9443
:10040000EE0B0C9400008EE58CBD229A239A259A5F
:10041000209A249808958EBD0DB407FEFDCF08954F
:10042000289A089528980895CF93C82F0E94100203
:1004300088EF0E940B028C2F807F0E940B028C2F72
:100440008295807F0E940B02CF910C941202CF9371
:10045000C82F0E9410028AEF0E940B028C2F807F0F
:100460000E940B028C2F8295807F0E940B02CF91FD
:100470000C94120284E30E94140286E30C9414028A
:1004800080E30C941402CF92DF92EF92FF920F93CD
:100490001F93CF93DF930E943A028EE2C82E81E031
:1004A000D82EF12C8F2D869598E0980F9068E92E24
:1004B000D82FD0688601C0E0C03218F080EE8C0FD3
:1004C00001C08C2F80680E941402C03210F48D2F5E
:1004D00001C08E2D0E941402F80180810E94270223
:1004E000F80181810E942702CF5F005F1F4FC03457
:1004F00019F7F394F394F2E0CF0ED11C80E1F812D7
:10050000D1CFDF91CF911F910F91FF90EF90DF90AE
:10051000CF90089540E054E06FEF70E08EE291E0FC
:100520000C94E70B80E094E0EEE2F1E0DF019C0147
:100530001D9221503040E1F7089587FD57C0603487
:1005400008F054C04130510529F0E8F0423051051F
:10055000A1F10895982F96959695969520E1629F22
:10056000F0011124E25DFE4FE90FF11D877020E8D4
:1005700030E0A90102C0559547958A95E2F7CA0176
:100580009081892B32C0982F96959695969550E13B
:10059000659FF0011124E25DFE4FE90FF11D8770A8
:1005A00020E830E0A90102C0559547958A95E2F709
:1005B000CA0180959081892318C0982F96959695A9
:1005C000969550E1659FF0011124E25DFE4FE90F21
:1005D000F11D877020E830E0A90102C055954795CC
:1005E0008A95E2F7CA0190818927808308954F9206
:1005F0005F926F927F928F929F92AF92BF92CF92B3
:10060000DF92EF92FF920F931F93CF93DF93C82E49
:10061000D62E742E622EC42FD0E0C81BD109D7FF6E
:1006200003C0D195C195D109E62CF12CED18F10844
:10063000F7FE03C0F194E194F108C71418F04424C4
:100640004A9402C044244394D61418F055245A9472
:1006500002C0552453944E018E189F08AA24BB242F
:10066000AE18BF08A8016D2D8C2D0E949D02C710E9
:1006700002C0D61481F0C401880F991FA816B906CC
:100680001CF48E189F08C40C8C179D075CF78C0E09
:100690009D1ED50CE7CFDF91CF911F910F91FF9059
:1006A000EF90DF90CF90BF90AF909F908F907F9012
:1006B0006F905F904F900895CF93DF93982F97702E
:1006C000E0E8F0E002C0F595E7959A95E2F7461765
:1006D00018F4962F642F492FBE2F21303105A9F031
:1006E00098F12230310509F05EC070E09B0194E082
:1006F000220F331F9A95E1F7869586958695280FE8
:10070000311D80E090E050E03FC070E09B01E4E0EC
:10071000220F331FEA95E1F7869586958695280F77
:10072000311D80E090E0C42FD0E0C617D707DCF180
:10073000FC01E20FF31FE25DFE4F50815B2B508303
:100740006F5F7F4F4096F1CF70E09B0154E0220F26
:10075000331F5A95E1F7869586958695280F311DAA
:1007600080E090E0C42FD0E0E095C617D707DCF01A
:10077000DC01A20FB31FA25DBE4F5C915E235C93B0
:100780006F5F7F4F4096F1CF4617570764F0FC012B
:10079000E20FF31FE25DFE4FA081AB27A0836F5FE6
:1007A0007F4F4096F1CFDF91CF910895CF92DF92A6
:1007B000EF92FF920F931F93CF93DF93CDB7DEB7E6
:1007C00060970FB6F894DEBF0FBECDBF98E0E0E0B3
:1007D000F1E0DE01199601900D929A95E1F798E00B
:1007E000E8E0F1E0DE01119601900D929A95E1F7B3
:1007F000E82FE695E695E695A62FA695A695A695EB
:10080000F0E0CA2ED12C681718F4982F862F692F84
:100810002130310539F008F45CC02230310509F48B
:10082000BAC00DC150E0877067709A01B4E0220F22
:10083000331FBA95E1F7225D3E4FEC15FD05C9F473
:100840002E0F3F1F09E010E00C0F1D1F080F111D98
:10085000A1E0B0E0AC0FBD1FA60FB11DBD01D801D6
:100860009C91DB018C918923D9019C91892B8C93DC
:100870001DC089010E0F1F1FA9E0B0E0AC0FBD1F06
:10088000A80FB11D9C91D8018C91892B8C93C90123
:100890008C0D9D1D21E030E02C0F3D1F260F311DDA
:1008A000D9013C91DC012C91232B2C93A4E0440F23
:1008B000551FAA95E1F72FEF3196EC15FD050CF0C9
:1008C000BEC0CF01840F951F825D9E4FDC012C932B
:1008D000F3CF50E087706770EC15FD0511F59A01B4
:1008E00074E0220F331F7A95E1F7225D3E4F2E0F01
:1008F0003F1F09E010E00C0F1D1F080F111DA1E0A4
:10090000B0E0AC0FBD1FA60FB11DBD01D8019C9179
:10091000DB018C9189238095D9019C9189238C934B
:1009200028C08A0134E0000F111F3A95E1F7025DFB
:100930001E4F7801EE0EFF1E29E030E02C0F3D1F08
:10094000280F311DD9019C919095D7012C919223AC
:100950009C93C8018C0D9D1D21E030E02C0F3D1FA4
:10096000260F311DD9012C912095DC013C912323C8
:100970002C9324E0440F551F2A95E1F73196EC158E
:10098000FD050CF05CC0CF01840F951F825D9E4F6A
:10099000DC011C92F3CF50E0877067709A0194E0FD
:1009A000220F331F9A95E1F7225D3E4FEC15FD05AE
:1009B000B9F42E0F3F1F09E010E00C0F1D1F080FA8
:1009C000111DA1E0B0E0AC0FBD1FA60FB11DBD0110
:1009D000D8019C91DB018C918923D9019C911AC08B
:1009E00089010E0F1F1FA9E0B0E0AC0FBD1FA80FBB
:1009F000B11D9C91D8018C9189278C932C0D3D1DA4
:100A000081E090E08C0F9D1F860F911DDC019C9171
:100A1000D9018C9189278C9384E0440F551F8A95C6
:100A2000E1F73196EC15FD0554F4CF01840F951FC5
:100A3000825D9E4FDC012C9120952C93F2CF609625
:100A40000FB6F894DEBF0FBECDBFDF91CF911F91DF
:100A50000F91FF90EF90DF90CF900895CF92DF92AB
:100A6000EF92FF920F931F93CF93DF93E82EC62F41
:100A7000D42FF22E87FD48C0603408F045C0842F83
:100A800090E08E0D911D8138910524F0D0E8DE199B
:100A9000D12C02C0DD24D3948F2D90E08C0F911DBA
:100AA000CC24CA94CE0C8134910524F080E4F82E35
:100AB000FC1A09C04FEF4F0D4C0F98016C2D6D0FB4
:100AC0008E2D0E94D603DC0D98014C2F6D2F8E2D9C
:100AD0000E94D6038EEF8C0FF80ECF5F98014F2D3A
:100AE0006C2F8E2D0E945C03DD2071F098014F2D3C
:100AF0006C2F8D2FDF91CF911F910F91FF90EF9071
:100B0000DF90CF900C945C03DF91CF911F910F91F8
:100B1000FF90EF90DF90CF900895AF92BF92CF9269
:100B2000DF92FF920F931F93CF93DF93F82E68010C
:100B300087FD26C0603420F5842F90E08F0D911D35
:100B40008138910514F040E84F19C62FD0E0CE014E
:100B5000820F911D8134910514F020E4261B5E0163
:100B6000A20EB11C1FEF1F0D140FCA15DB0544F4B4
:100B700096014C2F612F8F2D0E94D6032196F5CF21
:100B8000DF91CF911F910F91FF90DF90CF90BF9099
:100B9000AF9008952F923F924F925F926F927F9203
:100BA0008F929F92AF92BF92CF92DF92EF92FF927D
:100BB0000F931F93CF93DF9300D000D0CDB7DEB754
:100BC000782E662EB42E3C832B83042F10E081E018
:100BD00090E07C01E01AF10ACC24DD24C01AD10A8D
:100BE000CC0CDD1C642F660DA901872D0E949D028F
:100BF000662D6B194B815C81872D0E949D024B8174
:100C00005C81662D8B2D870D0E949D024B815C813E
:100C1000662D872D8B190E949D0233243394370C47
:100C200055245A94570CA12CB12C88248394912CD0
:100C3000862D87198A83A016B1060CF050C0F7FCE8
:100C400007C00150110982E0C80ED11CEC0CFD1C3C
:100C50008FEFA81AB80A82E0880E911CE80CF91CE4
:100C60004B815C81462C400E642D832D0E949D0299
:100C70004B815C81642D852D0E949D024B815C819E
:100C8000462C401A642D832D0E949D024B815C816D
:100C9000642D852D0E949D024A80430C4B815C810E
:100CA000642D872D800F89830E949D024B815C817A
:100CB000642D472C401A842D0E949D022A80250C09
:100CC0004B815C81622D89810E949D024B815C81F8
:100CD000622D842D0E949D0233945A94ACCF0F90C4
:100CE0000F900F900F90DF91CF911F910F91FF9078
:100CF000EF90DF90CF90BF90AF909F908F907F90BC
:100D00006F905F904F903F902F9008952F923F9259
:100D10004F925F926F927F928F929F92AF92BF920B
:100D2000CF92DF92EF92FF920F931F93CF93DF93B7
:100D300000D01F92CDB7DEB7782E562E49836901B9
:100D4000841B642F660F6F5F680F452D0E94D603CA
:100D50009981892F90E09B838A8301E010E0081B32
:100D6000190B7C01F194E194F108EE0CFF1C662450
:100D70006A94670C92E0492E470CA12CB12C882470
:100D80008394912C852D871989838A819B81A8164C
:100D9000B906D4F517FD0AC08A819B8101979B8310
:100DA0008A8392E0E90EF11C0E0D1F1D8FEFA81A29
:100DB000B80A92E0890E911C080D191D96014A810E
:100DC000450D642D862D0E94D6032A80270C23947E
:100DD000452D4A0D9601622D372C8A81381A832DB4
:100DE0000E94D6039601452D9A81491B642D862DBC
:100DF0000E94D6034981460D9601622D832D0E94E3
:100E0000D6036A944394C1CF0F900F900F90DF9157
:100E1000CF911F910F91FF90EF90DF90CF90BF90F7
:100E2000AF909F908F907F906F905F904F903F908A
:100E30002F900895FF920F931F93CF93DF93D82F96
:100E4000162FF42E052F0E944002113059F038F071
:100E5000123059F0133059F4CD2FC86908C0CD2F86
:100E6000C06805C0CD2FC06902C0CD2FC8688C2FC7
:100E70000E941402CF2DD02F8991882319F00E944F
:100E80002702FACFDF91CF911F910F91FF90089524
:100E90001F93CF93DF93CDB7DEB761970FB6F8946A
:100EA000DEBF0FBECDBF182F81E1E8E1F1E0DE012A
:100EB000119601900D928A95E1F70E944002AE01D1
:100EC0004F5F5F4F612F80E00E941A0761960FB657
:100ED000F894DEBF0FBECDBFDF91CF911F91089573
:100EE00081E00E9414028FE39CE90197F1F700C0B2
:100EF000000008952FEF81EE94E021508040904053
:100F0000E1F700C000000E94030280E30E94140287
:100F100082E00E9414020E94700786E00E94140280
:100F20008CE00C9414025C980895CF92DF92EF92BB
:100F3000FF920F931F93CF93DF938C01D62F5B9873
:100F40000E949307C0E0CD17E9F087E0C82ED12CAE
:100F50007801EC0EF11C0E949307F701808190E06C
:100F60000C2C02C0959587950A94E2F780FF02C089
:100F70005A9A01C05A985C9AF1E0CF1AD10858F7F2
:100F8000CF5FE1CF5B9ADF91CF911F910F91FF90DF
:100F9000EF90DF90CF900C949307CF93DF9300D026
:100FA0001F92CDB7DEB719821A821B828AB18C617B
:100FB0008AB95B980E9493075A988FE39FE1019743
:100FC000F1F700C0000063E0CE0101960E94950792
:100FD0000F900F900F90DF91CF9108950C94CD0753
:100FE0000F931F93CF93DF9300D01F92CDB7DEB73F
:100FF000883E23E09207E8F419821A821B8222E0DD
:101000000AE010E0B8010E94AA0BFC01E859FF4F6A
:10101000E491A1E0B0E0AC0FBD1FA20FB11DEC93B5
:10102000CB012150009771F763E0CE0101960E9439
:1010300095070F900F900F90DF91CF911F910F9117
:10104000089538983A983B983C983998E8E6F0E04B
:10105000208122602083ECE6F0E020812F61208354
:1010600090932F0580932E05789408951F920F92E8
:101070000FB60F9211242F933F934F935F936F936B
:101080007F938F939F93AF93BF93EF93FF93809141
:101090006C00807E80936C00309B11C08FE39CE9D4
:1010A0000197F1F700C00000309B09C0E0912E05C8
:1010B000F0912F0561E070E081E090E00995329BAE
:1010C00011C08FE39CE90197F1F700C00000329B4B
:1010D00009C0E0912E05F0912F0561E070E082E0FB
:1010E00090E00995339B11C08FE39CE90197F1F7DC
:1010F00000C00000339B09C0E0912E05F0912F0540
:1011000061E070E083E090E00995349B11C08FE3CB
:101110009CE90197F1F700C00000349B09C0E09101
:101120002E05F0912F0561E070E084E090E00995D4
:10113000319B11C08FE39CE90197F1F700C00000DB
:10114000319B09C0E0912E05F0912F0561E070E020
:1011500085E090E0099580916C008F6180936C0030
:10116000FF91EF91BF91AF919F918F917F916F917F
:101170005F914F913F912F910F900FBE0F901F9055
:101180001895559A84B5826184BD85B5856085BD05
:10119000EEE6F0E080818460808318BC7894089546
:1011A000559A0895A0E0B0E09C01AD018BE0220FBC
:1011B000331F441F551F8A95D1F760E074E284EF16
:1011C00090E00E94BE0B215020932A01089555986B
:1011D00008951F920F920FB60F9211248F9316BC91
:1011E00080912A0188BD8F910F900FBE0F901F90A4
:1011F00018950E94C1080C94E7080C94D008CF936E
:10120000DF93EC010E94D008CE01DF91CF910C94C6
:10121000D2080C94E70824E1FC0111922A95E9F721
:101220000C94E00B009741F0EFE9FFE03197F1F704
:1012300000C000000197F6CF08950F931F930E94FE
:10124000920201E010E02EE14EE160E088E20E94AF
:101250008D050E9443022FEF87EA91E621508040DE
:101260009040E1F700C000001F910F9108950F9387
:101270001F930E94920201E010E02EE14EE16EE128
:1012800080E00E948D050E9443022FEF87EA91E6DD
:10129000215080409040E1F700C000001F910F9165
:1012A00008950F931F930E94920201E010E02EE137
:1012B0004EE164E180E00E948D050E9443022FEF21
:1012C00087EA91E6215080409040E1F700C000009D
:1012D0001F910F9108950F931F930E94920201E0B6
:1012E00010E02EE14EE16AE080E00E948D050E9450
:1012F00043022FEF87EA91E6215080409040E1F7CA
:1013000000C000001F910F9108950E947A070E946B
:1013100070072FEF89E698E1215080409040E1F777
:1013200000C000000E9492020E9443020E94EE0749
:101330000E94F90880E00E94480781E00E94480767
:1013400082E00E94480783E00C944807CF93DF9324
:10135000CDB7DEB728970FB6F894DEBF0FBECDBF6E
:1013600088E0E0E1F1E0DE01119601900D928A95AE
:10137000E1F70E94D20965E082E790E00E94AC0AA2
:10138000FE013196E80FF11DE80FF11D0190F0818B
:10139000E02D0995F0CF0197059718F481E080932F
:1013A0002B0108956F927F928F929F92AF92BF927E
:1013B000CF92DF92EF92FF920F931F93CF93DF9321
:1013C000CDB7DEB764970FB6F894DEBF0FBECDBFC2
:1013D0008BEC99E00E9421080E9470070E94920203
:1013E0000E9443026DEB73E0CE0101960E940B094F
:1013F000AE014F5F5F4F61E082E00E941A0769EB28
:1014000073E0CE0101960E940B09AE014F5F5F4F62
:1014100062E084E00E941A0721E030E04EE16FE1D3
:101420008CE30E9486060E944302712CC12CD12CB1
:10143000E12CF12C00E010E0812C912CA12CB12C9E
:101440006624639480912B0181114AC0A814B904C9
:10145000E0F09801220F331FF901E557FC4F859109
:101460009491F901E35AFC4F85909490880C991C53
:101470000E94FF080F5F1F4F0831110520F00E94E6
:10148000090900E010E0A12CB12C85E6C816D104B2
:10149000D0F098EEE91693E0F90620F48FEFE81A01
:1014A000F80A02C0E12CF12CC7010E94F007762453
:1014B000272D30E04EE16FE18CE30E9486060E940A
:1014C0004302C12CD12C9FEFA91AB90A8FEFC81A79
:1014D000D80A8FE99FE00197F1F700C00000B2CF72
:1014E0000E94090981E00E94480782E00E944807A3
:1014F0000E9492020E94430280E090E00E94F00766
:1015000064960FB6F894DEBF0FBECDBFDF91CF91CA
:101510001F910F91FF90EF90DF90CF90BF90AF9011
:101520009F908F907F906F9008958330910579F010
:1015300038F48130910559F08230910541F00895D9
:101540008430910521F08530910509F0089590933C
:101550002D0180932C0108953F924F925F926F92DC
:101560007F928F929F92AF92BF92CF92DF92EF9233
:10157000FF920F931F93CF93DF93CDB7DEB764979E
:101580000FB6F894DEBF0FBECDBF4C01262F862FBD
:1015900063E00E949E0B592E8BEA289FE12C1124B8
:1015A000E6949111E3940E9492020E94430285E91D
:1015B0009AE00E94210862EC73E0CE0101960E943D
:1015C0000B09AE014F5F5F4F60E083E00E941A0796
:1015D00010922D0110922C0177247394612CF12C20
:1015E00081E0E81AF108C62C062C000CDD08CE14A8
:1015F000DF0411F4452C02C023E0422E81E00E945A
:10160000480782E00E94480783E00E944807962D21
:1016100083E0980280011124312CA42CB12CE32DFD
:10162000032C000CFF0B3394EA15FB05A4F4E00F28
:10163000F11FEE0FFF1FE80DF91D65917491CE01AA
:1016400001960E940B09AE014F5F5F4F632D80E052
:101650000E941A07E4CF80912C0190912D018130D6
:101660009105B1F4672D6295607F00E010E020E104
:1016700040E880E00E948D057A9417140CF448C06D
:10168000662021F10CF444C06A9483E0782E40C0B7
:1016900082309105F1F4672D6295607F00E010E0E3
:1016A00020E140E880E00E948D057394872D072C8F
:1016B000000C990BA816B9065CF5CE14DF0411F4E2
:1016C000742C26C0CE14DF041CF563947724739425
:1016D0001FC00397E9F4862D880F860D7A94870D35
:1016E00064960FB6F894DEBF0FBECDBFDF91CF91E9
:1016F0001F910F91FF90EF90DF90CF90BF90AF9030
:101700009F908F907F906F905F904F903F90089543
:1017100010922D0110922C0101E010E020E140E830
:10172000672D6295607F80E00E948D050E944302D4
:101730005ACF0E9485090E94A609FDCF991B79E026
:1017400004C0991F961708F0961B881F7A95C9F751
:1017500080950895AA1BBB1B51E107C0AA1FBB1FA0
:10176000A617B70710F0A61BB70B881F991F5A952D
:10177000A9F780959095BC01CD010895A1E21A2E9C
:10178000AA1BBB1BFD010DC0AA1FBB1FEE1FFF1F25
:10179000A217B307E407F50720F0A21BB30BE40B75
:1017A000F50B661F771F881F991F1A9469F76095BC
:1017B0007095809590959B01AC01BD01CF01089576
:1017C000FB01DC0105900D920020E1F70895DC019A
:1017D00001C06D9341505040E0F70895F894FFCF59
:1017E000FF7F3F1F0F07030180C0E0F0F8FCFEFF02
:1017F0006B09510937091D092020202020202020B5
:0A18000020202020202020200000DE
:00000001FF
