:100000000C9439000C9456000C9456000C94560035
:100010000C9463060C9456000C9456000C945600F5
:100020000C9456000C9456000C9456000C945600F8
:100030000C9456000C9456000C9456000C94F30645
:100040000C9456000C9456000C9456000C945600D8
:100050000C9456000C9456000C9456000C945600C8
:100060000C9456000C9456003F065B4F666D7D075E
:100070007F6F11241FBECFEFD8E0DEBFCDBF11E0F0
:10008000A0E0B1E0E6EFFEE002C005900D92AA33D9
:10009000B107D9F725E0AAE3B1E001C01D92AD3365
:1000A000B207E1F70E940B070C9479070C9400004B
:1000B0008EE58CBD229A239A259A209A2498089539
:1000C0008EBD0DB407FEFDCF0895289A0895289897
:1000D0000895CF93C82F0E94650088EF0E946000AA
:1000E0008C2F807F0E9460008C2F8295807F0E94E1
:1000F0006000CF910C946700CF93C82F0E946500D9
:100100008AEF0E9460008C2F807F0E9460008C2FFD
:100110008295807F0E946000CF910C94670084E3F9
:100120000E94690086E30C94690080E30C946900E6
:10013000CF92DF92EF92FF920F931F93CF93DF93B3
:100140000E948F008BE3C82E81E0D82EF12C8F2DDA
:10015000869598E0980F9068E92ED82FD068860190
:10016000C0E0C03218F080EE8C0F01C08C2F806888
:100170000E946900C03210F48D2F01C08E2D0E94A4
:100180006900F80180810E947C00F80181810E9451
:100190007C00CF5F005F1F4FC03419F7F394F394D6
:1001A000F2E0CF0ED11C80E1F812D1CFDF91CF91D8
:1001B0001F910F91FF90EF90DF90CF90089540E056
:1001C00054E06FEF70E08BE391E00C94720780E0F5
:1001D00094E0EBE3F1E0DF019C011D9221503040FF
:1001E000E1F7089587FD57C0603408F054C04130EE
:1001F000510529F0E8F042305105A1F10895982FFA
:1002000096959695969520E1629FF0011124E55C04
:10021000FE4FE90FF11D877020E830E0A90102C010
:10022000559547958A95E2F7CA019081892B32C08E
:10023000982F96959695969550E1659FF00111241B
:10024000E55CFE4FE90FF11D877020E830E0A90161
:1002500002C0559547958A95E2F7CA01809590812D
:10026000892318C0982F96959695969550E1659F8D
:10027000F0011124E55CFE4FE90FF11D877020E8C5
:1002800030E0A90102C0559547958A95E2F7CA0169
:1002900090818927808308954F925F926F927F9219
:1002A0008F929F92AF92BF92CF92DF92EF92FF9286
:1002B0000F931F93CF93DF93C82ED62E742E622EEA
:1002C000C42FD0E0C81BD109D7FF03C0D195C19579
:1002D000D109E62CF12CED18F108F7FE03C0F194DA
:1002E000E194F108C71418F044244A9402C044244D
:1002F0004394D61418F055245A9402C055245394AC
:100300004E018E189F08AA24BB24AE18BF08A8016E
:100310006D2D8C2D0E94F200C71002C0D61481F002
:10032000C401880F991FA816B9061CF48E189F08DF
:10033000C40C8C179D075CF78C0E9D1ED50CE7CF67
:10034000DF91CF911F910F91FF90EF90DF90CF90B1
:10035000BF90AF909F908F907F906F905F904F90E5
:100360000895CF93DF93982F9770E0E8F0E002C0F4
:10037000F595E7959A95E2F7461718F4962F642FAE
:10038000492FBE2F21303105A9F098F122303105D7
:1003900009F05EC070E09B0194E0220F331F9A9534
:1003A000E1F7869586958695280F311D80E090E0CF
:1003B00050E03FC070E09B01E4E0220F331FEA955C
:1003C000E1F7869586958695280F311D80E090E0AF
:1003D000C42FD0E0C617D707DCF1FC01E20FF31FF2
:1003E000E55CFE4F50815B2B50836F5F7F4F4096E3
:1003F000F1CF70E09B0154E0220F331F5A95E1F7D3
:10040000869586958695280F311D80E090E0C42F53
:10041000D0E0E095C617D707DCF0DC01A20FB31FD0
:10042000A55CBE4F5C915E235C936F5F7F4F4096EF
:10043000F1CF4617570764F0FC01E20FF31FE55CAC
:10044000FE4FA081AB27A0836F5F7F4F4096F1CF17
:10045000DF91CF910895CF92DF92EF92FF920F93A9
:100460001F93CF93DF93CDB7DEB760970FB6F894A5
:10047000DEBF0FBECDBF98E0E0E0F1E0DE011996EF
:1004800001900D929A95E1F798E0E8E0F1E0DE0145
:10049000119601900D929A95E1F7E82FE695E69571
:1004A000E695A62FA695A695A695F0E0CA2ED12C86
:1004B000681718F4982F862F692F2130310539F0ED
:1004C00008F45CC02230310509F4BAC00DC150E017
:1004D000877067709A01B4E0220F331FBA95E1F775
:1004E000255C3E4FEC15FD05C9F42E0F3F1F09E0BA
:1004F00010E00C0F1D1F080F111DA1E0B0E0AC0FA4
:10050000BD1FA60FB11DBD01D8019C91DB018C91CF
:100510008923D9019C91892B8C931DC089010E0FD1
:100520001F1FA9E0B0E0AC0FBD1FA80FB11D9C912B
:10053000D8018C91892B8C93C9018C0D9D1D21E0D4
:1005400030E02C0F3D1F260F311DD9013C91DC01FD
:100550002C91232B2C93A4E0440F551FAA95E1F76F
:100560002FEF3196EC15FD050CF0BEC0CF01840FC6
:10057000951F855C9E4FDC012C93F3CF50E0877074
:100580006770EC15FD0511F59A0174E0220F331F19
:100590007A95E1F7255C3E4F2E0F3F1F09E010E0F2
:1005A0000C0F1D1F080F111DA1E0B0E0AC0FBD1F07
:1005B000A60FB11DBD01D8019C91DB018C9189234F
:1005C0008095D9019C9189238C9328C08A0134E0BD
:1005D000000F111F3A95E1F7055C1E4F7801EE0EF2
:1005E000FF1E29E030E02C0F3D1F280F311DD901DF
:1005F0009C919095D7012C9192239C93C8018C0DCE
:100600009D1D21E030E02C0F3D1F260F311DD9012B
:100610002C912095DC013C9123232C9324E0440F62
:10062000551F2A95E1F73196EC15FD050CF05CC0DD
:10063000CF01840F951F855C9E4FDC011C92F3CF88
:1006400050E0877067709A0194E0220F331F9A95EB
:10065000E1F7255C3E4FEC15FD05B9F42E0F3F1F69
:1006600009E010E00C0F1D1F080F111DA1E0B0E004
:10067000AC0FBD1FA60FB11DBD01D8019C91DB01C0
:100680008C918923D9019C911AC089010E0F1F1FDB
:10069000A9E0B0E0AC0FBD1FA80FB11D9C91D8011F
:1006A0008C9189278C932C0D3D1D81E090E08C0F5F
:1006B0009D1F860F911DDC019C91D9018C9189278A
:1006C0008C9384E0440F551F8A95E1F73196EC1521
:1006D000FD0554F4CF01840F951F855C9E4FDC010E
:1006E0002C9120952C93F2CF60960FB6F894DEBF34
:1006F0000FBECDBFDF91CF911F910F91FF90EF9073
:10070000DF90CF900895CF92DF92EF92FF920F93F8
:100710001F93CF93DF93E82EC62FD42FF22E87FDA1
:1007200048C0603408F045C0842F90E08E0D911DC4
:100730008138910524F0D0E8DE19D12C02C0DD24E7
:10074000D3948F2D90E08C0F911DCC24CA94CE0CA5
:100750008134910524F080E4F82EFC1A09C04FEF93
:100760004F0D4C0F98016C2D6D0F8E2D0E942B029A
:10077000DC0D98014C2F6D2F8E2D0E942B028EEFD9
:100780008C0FF80ECF5F98014F2D6C2F8E2D0E948D
:10079000B101DD2071F098014F2D6C2F8D2FDF916D
:1007A000CF911F910F91FF90EF90DF90CF900C941D
:1007B000B101DF91CF911F910F91FF90EF90DF90EA
:1007C000CF900895AF92BF92CF92DF92FF920F9396
:1007D0001F93CF93DF93F82E680187FD26C0603406
:1007E00020F5842F90E08F0D911D8138910514F034
:1007F00040E84F19C62FD0E0CE01820F911D813401
:10080000910514F020E4261B5E01A20EB11C1FEF1F
:100810001F0D140FCA15DB0544F496014C2F612FF0
:100820008F2D0E942B022196F5CFDF91CF911F9142
:100830000F91FF90DF90CF90BF90AF9008952F92CF
:100840003F924F925F926F927F928F929F92AF9260
:10085000BF92CF92DF92EF92FF920F931F93CF93AD
:10086000DF9300D000D0CDB7DEB7782E662EB42E41
:100870003C832B83042F10E081E090E07C01E01AA0
:10088000F10ACC24DD24C01AD10ACC0CDD1C642F63
:10089000660DA901872D0E94F200662D6B194B8110
:1008A0005C81872D0E94F2004B815C81662D8B2D2F
:1008B000870D0E94F2004B815C81662D872D8B197C
:1008C0000E94F20033243394370C55245A94570C69
:1008D000A12CB12C88248394912C862D87198A838E
:1008E000A016B1060CF050C0F7FC07C0015011096A
:1008F00082E0C80ED11CEC0CFD1C8FEFA81AB80AC0
:1009000082E0880E911CE80CF91C4B815C81462C1E
:10091000400E642D832D0E94F2004B815C81642D7A
:10092000852D0E94F2004B815C81462C401A642D7B
:10093000832D0E94F2004B815C81642D852D0E94E5
:10094000F2004A80430C4B815C81642D872D800F1F
:1009500089830E94F2004B815C81642D472C401AF0
:10096000842D0E94F2002A80250C4B815C81622D2F
:1009700089810E94F2004B815C81622D842D0E944E
:10098000F20033945A94ACCF0F900F900F900F90C9
:10099000DF91CF911F910F91FF90EF90DF90CF905B
:1009A000BF90AF909F908F907F906F905F904F908F
:1009B0003F902F9008952F923F924F925F926F92A7
:1009C0007F928F929F92AF92BF92CF92DF92EF92DF
:1009D000FF920F931F93CF93DF9300D01F92CDB759
:1009E000DEB7782E562E49836901841B642F660F6B
:1009F0006F5F680F452D0E942B029981892F90E02F
:100A00009B838A8301E010E0081B190B7C01F194A1
:100A1000E194F108EE0CFF1C66246A94670C92E0E6
:100A2000492E470CA12CB12C88248394912C852D20
:100A3000871989838A819B81A816B906D4F517FD89
:100A40000AC08A819B8101979B838A8392E0E90E89
:100A5000F11C0E0D1F1D8FEFA81AB80A92E0890E27
:100A6000911C080D191D96014A81450D642D862D96
:100A70000E942B022A80270C2394452D4A0D9601B3
:100A8000622D372C8A81381A832D0E942B02960101
:100A9000452D9A81491B642D862D0E942B02498188
:100AA000460D9601622D832D0E942B026A94439479
:100AB000C1CF0F900F900F90DF91CF911F910F91A9
:100AC000FF90EF90DF90CF90BF90AF909F908F906E
:100AD0007F906F905F904F903F902F900895FF927E
:100AE0000F931F93CF93DF93D82F162FF42E052F3C
:100AF0000E949500113059F038F0123059F013303F
:100B000059F4CD2FC86908C0CD2FC06805C0CD2FBE
:100B1000C06902C0CD2FC8688C2F0E946900CF2DFC
:100B2000D02F8991882319F00E947C00FACFDF91A1
:100B3000CF911F910F91FF90089581E00E9469006D
:100B40008FE39CE90197F1F700C0000008952FEFB3
:100B500081EE94E0215080409040E1F700C0000019
:100B60000E94580080E30E94690082E00E946900B0
:100B70000E949D0586E00E9469008CE00C9469004B
:100B80005C980895CF92DF92EF92FF920F931F939C
:100B9000CF93DF938C01D62F5B980E94C005C0E0F5
:100BA000CD17E9F087E0C82ED12C7801EC0EF11CAE
:100BB0000E94C005F701808190E00C2C02C0959541
:100BC00087950A94E2F780FF02C05A9A01C05A98AA
:100BD0005C9AF1E0CF1AD10858F7CF5FE1CF5B9A6A
:100BE000DF91CF911F910F91FF90EF90DF90CF9009
:100BF0000C94C005CF93DF9300D01F92CDB7DEB722
:100C000019821A821B828AB18C618AB95B980E9410
:100C1000C0055A988FE39FE10197F1F700C00000EB
:100C200063E0CE0101960E94C2050F900F900F90D5
:100C3000DF91CF9108950C94FA050F931F93CF93F2
:100C4000DF9300D01F92CDB7DEB7883E23E0920736
:100C5000E8F419821A821B8222E00AE010E0B8014F
:100C60000E943C07FC01E859FF4FE491A1E0B0E08D
:100C7000AC0FBD1FA20FB11DEC93CB01215000970B
:100C800071F763E0CE0101960E94C2050F900F90AC
:100C90000F90DF91CF911F910F91089538983A9856
:100CA0003B983C983998E8E6F0E020812260208368
:100CB000ECE6F0E020812F61208390933C05809347
:100CC0003B05789408951F920F920FB60F9211244E
:100CD0002F933F934F935F936F937F938F939F9344
:100CE000AF93BF93EF93FF9380916C00807E8093CE
:100CF0006C002FEF8AE693E0215080409040E1F7AE
:100D000000C00000309B09C0E0913B05F0913C051C
:100D100061E070E080E090E00995329B09C0E091CD
:100D20003B05F0913C0561E070E081E090E00995C1
:100D3000339B09C0E0913B05F0913C0561E070E018
:100D400082E090E00995349B09C0E0913B05F09169
:100D50003C0561E070E083E090E00995319B09C0BB
:100D6000E0913B05F0913C0561E070E084E090E0AB
:100D7000099580916C008F6180936C00FF91EF91D9
:100D8000BF91AF919F918F917F916F915F914F91A3
:100D90003F912F910F900FBE0F901F901895559A6D
:100DA00084B5826184BD85B5856085BDEEE6F0E0E1
:100DB00080818460808318BC78940895A0E0B0E0BE
:100DC0009C01AD018BE0220F331F441F551F8A95F4
:100DD000D1F760E074E284EF90E00E945007215068
:100DE00020933A0108951F920F920FB60F9211248B
:100DF0008F9316BC80913A0188BD8F910F900FBEE2
:100E00000F901F9018950C94CF060C94DE0680E08E
:100E100090E00C94DE06CF93DF93CDB7DEB7AA97B0
:100E20000FB6F894DEBF0FBECDBF8AE2E0E1F1E07D
:100E3000DE01119601900D928A95E1F70E94030759
:100E40007E012BE2E20EF11C8E010F5F1F4FF801B5
:100E5000819191918F010E940507FFEF23ED80E3BF
:100E6000F15020408040E1F700C000000E151F0542
:100E700071F70E940707E8CFAA1BBB1B51E107C00F
:100E8000AA1FBB1FA617B70710F0A61BB70B881F1A
:100E9000991F5A95A9F780959095BC01CD010895A9
:100EA000A1E21A2EAA1BBB1BFD010DC0AA1FBB1F6E
:100EB000EE1FFF1FA217B307E407F50720F0A21BE0
:100EC000B30BE40BF50B661F771F881F991F1A944D
:100ED00069F760957095809590959B01AC01BD0177
:100EE000CF010895DC0101C06D9341505040E0F7FF
:060EF0000895F894FFCF05
:100EF600FF7F3F1F0F07030180C0E0F0F8FCFEFFF5
:100F060083009300A500AF00C400DC00F7000601D3
:100F160026014A015D018801B801EE010B024B0270
:0A0F26009302BA0210037003E60301
:00000001FF
