:100000000C949C010C94B9010C94B9010C94B901A5
:100010000C94EE070C94B9010C94B9010C94B9013D
:100020000C94B9010C94B9010C94B9010C94B90168
:100030000C94B9010C94B9010C94B9010C94A10869
:100040000C94B9010C94B9010C94B9010C94B90148
:100050000C94B9010C94B9010C94B9010C94B90138
:100060000C94B9010C94B9013F065B4F666D7D0796
:100070007F6F640001003200010064000100640031
:10008000640032003200320032003200640064004A
:10009000640064006400640064009600640064000E
:1000A0006400640064006400640064000100640093
:1000B00064006400640064006400640064009600EE
:1000C00032003200640001003200010064000100CF
:1000D0006400640064006400640064006400640000
:1000E00064006400640064006400640096006400BE
:1000F0006400640064004A0100004A0100004A01F3
:1001000000004A01EE017201880172014A012601D4
:1001100072014A0172014A0126014A0172018801F5
:1001200072014A012601F7009302EE014B02EE0133
:100130000000EE01B80188014A018801B801EE0112
:100140000B02B801880172014A0100004A01000057
:100150004A0100004A01EE017201880172014A0160
:10016000260172014A0172014A0126014A01720107
:10017000880172014A012601F70032004B00640039
:10018000010064000100640032004B004B00640079
:10019000640032004B006400640000006400010051
:1001A0006400010064000100DC0006014A01000057
:1001B0004A0100004A017201880172012601F7001C
:1001C00006014A010601DC000000D0000000D0005A
:1001D0000000D000000064003200320064003200F1
:1001E00032006400640032006400640032003200B7
:1001F00019001900190064006400640064003200F2
:1002000032006400320064006400320032003200C8
:100210006400640032003200640064006400640022
:10022000C800C800C800C800C800C800C800C8008E
:10023000C800C800C800C80064006400C800C80046
:100240004A01F700060126010601F700DC00DC0088
:1002500006014A0126010601F700060126014A01AE
:100260000601B801B80126015D01B80188015D01F0
:100270004A0106014A0126010601F700F7000601BE
:1002800026014A010601DC00DC004A0106012601C4
:10029000F7000601DC00D000F7004A010601260144
:1002A000F70006014A01B8019F01B302AE024F56A2
:1002B00045520047414D450013030B030403FB0265
:1002C000F302E802DE02D402CA02382E5350415231
:1002D00045203300372E5350415245203200362EF0
:1002E0005350415245203100352E53455454494E08
:1002F000475300342E5049414E4F00332E5445543D
:1003000052495300322E504F4E4700312E534E412A
:100310004B45004D454E550025031C032020202051
:10032000202020200047414D4520424F58004741A2
:100330004D4520424F58000011241FBECFEFD8E09A
:10034000DEBFCDBF11E0A0E0B1E0EEEFF2E102C010
:1003500005900D92A632B107D9F725E0A6E2B1E0EB
:1003600001C01D92AA32B207E1F70E9434090C9431
:100370007D090C9400008EE58CBD229A239A259A63
:10038000209A249808958EBD0DB407FEFDCF0895E0
:10039000289A089528980895CF93C82F0E94C801DD
:1003A00088EF0E94C3018C2F807F0E94C3018C2F95
:1003B0008295807F0E94C301CF910C94CA01CF9394
:1003C000C82F0E94C8018AEF0E94C3018C2F807F32
:1003D0000E94C3018C2F8295807F0E94C301CF9120
:1003E0000C94CA0184E30E94CC0186E30C94CC01F6
:1003F00080E30C94CC01CF92DF92EF92FF920F93A7
:100400001F93CF93DF930E94F20188E2C82E81E010
:10041000D82EF12C8F2D869598E0980F9068E92EB4
:10042000D82FD0688601C0E0C03218F080EE8C0F63
:1004300001C08C2F80680E94CC01C03210F48D2F37
:1004400001C08E2D0E94CC01F80180810E94DF0145
:10045000F80181810E94DF01CF5F005F1F4FC03430
:1004600019F7F394F394F2E0CF0ED11C80E1F81267
:10047000D1CFDF91CF911F910F91FF90EF90DF903F
:10048000CF90089540E054E06FEF70E088E291E093
:100490000C94760980E094E0E8E2F1E0DF019C0151
:1004A0001D9221503040E1F7089587FD57C0603418
:1004B00008F054C04130510529F0E8F042305105B0
:1004C000A1F10895982F96959695969520E1629FB3
:1004D000F0011124E85DFE4FE90FF11D877020E85F
:1004E00030E0A90102C0559547958A95E2F7CA0107
:1004F0009081892B32C0982F96959695969550E1CC
:10050000659FF0011124E85DFE4FE90FF11D877032
:1005100020E830E0A90102C0559547958A95E2F799
:10052000CA0180959081892318C0982F9695969539
:10053000969550E1659FF0011124E85DFE4FE90FAB
:10054000F11D877020E830E0A90102C0559547955C
:100550008A95E2F7CA0190818927808308954F9296
:100560005F926F927F928F929F92AF92BF92CF9243
:10057000DF92EF92FF920F931F93CF93DF93C82EDA
:10058000D62E742E622EC42FD0E0C81BD109D7FFFF
:1005900003C0D195C195D109E62CF12CED18F108D5
:1005A000F7FE03C0F194E194F108C71418F0442455
:1005B0004A9402C044244394D61418F055245A9403
:1005C00002C0552453944E018E189F08AA24BB24C0
:1005D000AE18BF08A8016D2D8C2D0E945502C710C2
:1005E00002C0D61481F0C401880F991FA816B9065D
:1005F0001CF48E189F08C40C8C179D075CF78C0E9A
:100600009D1ED50CE7CFDF91CF911F910F91FF90E9
:10061000EF90DF90CF90BF90AF909F908F907F90A2
:100620006F905F904F900895CF93DF93982F9770BE
:10063000E0E8F0E002C0F595E7959A95E2F74617F5
:1006400018F4962F642F492FBE2F21303105A9F0C1
:1006500098F12230310509F05EC070E09B0194E012
:10066000220F331F9A95E1F7869586958695280F78
:10067000311D80E090E050E03FC070E09B01E4E07D
:10068000220F331FEA95E1F7869586958695280F08
:10069000311D80E090E0C42FD0E0C617D707DCF111
:1006A000FC01E20FF31FE85DFE4F50815B2B50838E
:1006B0006F5F7F4F4096F1CF70E09B0154E0220FB7
:1006C000331F5A95E1F7869586958695280F311D3B
:1006D00080E090E0C42FD0E0E095C617D707DCF0AB
:1006E000DC01A20FB31FA85DBE4F5C915E235C933B
:1006F0006F5F7F4F4096F1CF4617570764F0FC01BC
:10070000E20FF31FE85DFE4FA081AB27A0836F5F70
:100710007F4F4096F1CFDF91CF910895CF92DF9236
:10072000EF92FF920F931F93CF93DF93CDB7DEB776
:1007300060970FB6F894DEBF0FBECDBF98E0E0E043
:10074000F1E0DE01199601900D929A95E1F798E09B
:10075000E8E0F1E0DE01119601900D929A95E1F743
:10076000E82FE695E695E695A62FA695A695A6957B
:10077000F0E0CA2ED12C681718F4982F862F692F15
:100780002130310539F008F45CC02230310509F41C
:10079000BAC00DC150E0877067709A01B4E0220FB3
:1007A000331FBA95E1F7285D3E4FEC15FD05C9F4FE
:1007B0002E0F3F1F09E010E00C0F1D1F080F111D29
:1007C000A1E0B0E0AC0FBD1FA60FB11DBD01D80167
:1007D0009C91DB018C918923D9019C91892B8C936D
:1007E0001DC089010E0F1F1FA9E0B0E0AC0FBD1F97
:1007F000A80FB11D9C91D8018C91892B8C93C901B4
:100800008C0D9D1D21E030E02C0F3D1F260F311D6A
:10081000D9013C91DC012C91232B2C93A4E0440FB3
:10082000551FAA95E1F72FEF3196EC15FD050CF059
:10083000BEC0CF01840F951F885D9E4FDC012C93B5
:10084000F3CF50E087706770EC15FD0511F59A0144
:1008500074E0220F331F7A95E1F7285D3E4F2E0F8B
:100860003F1F09E010E00C0F1D1F080F111DA1E034
:10087000B0E0AC0FBD1FA60FB11DBD01D8019C910A
:10088000DB018C9189238095D9019C9189238C93DC
:1008900028C08A0134E0000F111F3A95E1F7085D86
:1008A0001E4F7801EE0EFF1E29E030E02C0F3D1F99
:1008B000280F311DD9019C919095D7012C9192233D
:1008C0009C93C8018C0D9D1D21E030E02C0F3D1F35
:1008D000260F311DD9012C912095DC013C91232359
:1008E0002C9324E0440F551F2A95E1F73196EC151F
:1008F000FD050CF05CC0CF01840F951F885D9E4FF5
:10090000DC011C92F3CF50E0877067709A0194E08D
:10091000220F331F9A95E1F7285D3E4FEC15FD0538
:10092000B9F42E0F3F1F09E010E00C0F1D1F080F38
:10093000111DA1E0B0E0AC0FBD1FA60FB11DBD01A0
:10094000D8019C91DB018C918923D9019C911AC01B
:1009500089010E0F1F1FA9E0B0E0AC0FBD1FA80F4B
:10096000B11D9C91D8018C9189278C932C0D3D1D34
:1009700081E090E08C0F9D1F860F911DDC019C9102
:10098000D9018C9189278C9384E0440F551F8A9557
:10099000E1F73196EC15FD0554F4CF01840F951F56
:1009A000885D9E4FDC012C9120952C93F2CF6096B0
:1009B0000FB6F894DEBF0FBECDBFDF91CF911F9170
:1009C0000F91FF90EF90DF90CF900895CF92DF923C
:1009D000EF92FF920F931F93CF93DF93E82EC62FD2
:1009E000D42FF22E87FD48C0603408F045C0842F14
:1009F00090E08E0D911D8138910524F0D0E8DE192C
:100A0000D12C02C0DD24D3948F2D90E08C0F911D4A
:100A1000CC24CA94CE0C8134910524F080E4F82EC5
:100A2000FC1A09C04FEF4F0D4C0F98016C2D6D0F44
:100A30008E2D0E948E03DC0D98014C2F6D2F8E2D74
:100A40000E948E038EEF8C0FF80ECF5F98014F2D12
:100A50006C2F8E2D0E941403DD2071F098014F2D14
:100A60006C2F8D2FDF91CF911F910F91FF90EF9001
:100A7000DF90CF900C941403DF91CF911F910F91D1
:100A8000FF90EF90DF90CF900895AF92BF92CF92FA
:100A9000DF92FF920F931F93CF93DF93F82E68019D
:100AA00087FD26C0603420F5842F90E08F0D911DC6
:100AB0008138910514F040E84F19C62FD0E0CE01DF
:100AC000820F911D8134910514F020E4261B5E01F4
:100AD000A20EB11C1FEF1F0D140FCA15DB0544F445
:100AE00096014C2F612F8F2D0E948E032196F5CFFA
:100AF000DF91CF911F910F91FF90DF90CF90BF902A
:100B0000AF9008952F923F924F925F926F927F9293
:100B10008F929F92AF92BF92CF92DF92EF92FF920D
:100B20000F931F93CF93DF9300D000D0CDB7DEB7E4
:100B3000782E662EB42E3C832B83042F10E081E0A8
:100B400090E07C01E01AF10ACC24DD24C01AD10A1D
:100B5000CC0CDD1C642F660DA901872D0E94550267
:100B6000662D6B194B815C81872D0E9455024B814C
:100B70005C81662D8B2D870D0E9455024B815C8117
:100B8000662D872D8B190E94550233243394370C20
:100B900055245A94570CA12CB12C88248394912C61
:100BA000862D87198A83A016B1060CF050C0F7FC79
:100BB00007C00150110982E0C80ED11CEC0CFD1CCD
:100BC0008FEFA81AB80A82E0880E911CE80CF91C75
:100BD0004B815C81462C400E642D832D0E94550272
:100BE0004B815C81642D852D0E9455024B815C8177
:100BF000462C401A642D832D0E9455024B815C8146
:100C0000642D852D0E9455024A80430C4B815C81E6
:100C1000642D872D800F89830E9455024B815C8152
:100C2000642D472C401A842D0E9455022A80250CE1
:100C30004B815C81622D89810E9455024B815C81D0
:100C4000622D842D0E94550233945A94ACCF0F909C
:100C50000F900F900F90DF91CF911F910F91FF9008
:100C6000EF90DF90CF90BF90AF909F908F907F904C
:100C70006F905F904F903F902F9008952F923F92EA
:100C80004F925F926F927F928F929F92AF92BF929C
:100C9000CF92DF92EF92FF920F931F93CF93DF9348
:100CA00000D01F92CDB7DEB7782E562E498369014A
:100CB000841B642F660F6F5F680F452D0E948E03A3
:100CC0009981892F90E09B838A8301E010E0081BC3
:100CD000190B7C01F194E194F108EE0CFF1C6624E1
:100CE0006A94670C92E0492E470CA12CB12C882401
:100CF0008394912C852D871989838A819B81A816DD
:100D0000B906D4F517FD0AC08A819B8101979B83A0
:100D10008A8392E0E90EF11C0E0D1F1D8FEFA81AB9
:100D2000B80A92E0890E911C080D191D96014A819E
:100D3000450D642D862D0E948E032A80270C239456
:100D4000452D4A0D9601622D372C8A81381A832D44
:100D50000E948E039601452D9A81491B642D862D94
:100D60000E948E034981460D9601622D832D0E94BB
:100D70008E036A944394C1CF0F900F900F90DF9130
:100D8000CF911F910F91FF90EF90DF90CF90BF9088
:100D9000AF909F908F907F906F905F904F903F901B
:100DA0002F900895FF920F931F93CF93DF93D82F27
:100DB000162FF42E052F0E94F801113059F038F04B
:100DC000123059F0133059F4CD2FC86908C0CD2F17
:100DD000C06805C0CD2FC06902C0CD2FC8688C2F58
:100DE0000E94CC01CF2DD02F8991882319F00E9429
:100DF000DF01FACFDF91CF911F910F91FF900895FE
:100E00001F93CF93DF93CDB7DEB761970FB6F894FA
:100E1000DEBF0FBECDBF182F81E1E0E1F1E0DE01C2
:100E2000119601900D928A95E1F70E94F801AE01AA
:100E30004F5F5F4F612F80E00E94D20661960FB630
:100E4000F894DEBF0FBECDBFDF91CF911F91089503
:100E500081E00E94CC018FE39CE90197F1F700C08B
:100E6000000008952FEF81EE94E0215080409040E3
:100E7000E1F700C000000E94BB0180E30E94CC01AA
:100E800082E00E94CC010E94280786E00E94CC01EB
:100E90008CE00C94CC015C980895CF92DF92EF9295
:100EA000FF920F931F93CF93DF938C01D62F5B9804
:100EB0000E944B07C0E0CD17E9F087E0C82ED12C87
:100EC0007801EC0EF11C0E944B07F701808190E045
:100ED0000C2C02C0959587950A94E2F780FF02C01A
:100EE0005A9A01C05A985C9AF1E0CF1AD10858F783
:100EF000CF5FE1CF5B9ADF91CF911F910F91FF9070
:100F0000EF90DF90CF900C944B07CF93DF9300D0FE
:100F10001F92CDB7DEB719821A821B828AB18C610B
:100F20008AB95B980E944B075A988FE39FE101971B
:100F3000F1F700C0000063E0CE0101960E944D076A
:100F40000F900F900F90DF91CF9108950C9485072B
:100F50000F931F93CF93DF9300D01F92CDB7DEB7CF
:100F6000883E23E09207E8F419821A821B8222E06D
:100F70000AE010E0B8010E943909FC01E859FF4F6E
:100F8000E491A1E0B0E0AC0FBD1FA20FB11DEC9346
:100F9000CB012150009771F763E0CE0101960E94CA
:100FA0004D070F900F900F90DF91CF911F910F91F0
:100FB000089538983A983B983C983998E8E6F0E0DC
:100FC000208122602083ECE6F0E020812F612083E5
:100FD0009093290580932805789408951F920F9285
:100FE0000FB60F9211242F933F934F935F936F93FC
:100FF0007F938F939F93AF93BF93EF93FF938091D2
:101000006C00807E80936C00309B11C08FE39CE964
:101010000197F1F700C00000309B09C0E09128055E
:10102000F091290561E070E081E090E00995329B44
:1010300011C08FE39CE90197F1F700C00000329BDB
:1010400009C0E0912805F091290561E070E082E097
:1010500090E00995339B11C08FE39CE90197F1F76C
:1010600000C00000339B09C0E0912805F0912905DC
:1010700061E070E083E090E00995349B11C08FE35C
:101080009CE90197F1F700C00000349B09C0E09192
:101090002805F091290561E070E084E090E0099571
:1010A000319B11C08FE39CE90197F1F700C000006C
:1010B000319B09C0E0912805F091290561E070E0BD
:1010C00085E090E0099580916C008F6180936C00C1
:1010D000FF91EF91BF91AF919F918F917F916F9110
:1010E0005F914F913F912F910F900FBE0F901F90E6
:1010F0001895559A84B5826184BD85B5856085BD96
:10110000EEE6F0E080818460808318BC78940895D6
:10111000559A0895A0E0B0E09C01AD018BE0220F4C
:10112000331F441F551F8A95D1F760E074E284EFA6
:1011300090E00E944D092150209326010895559872
:1011400008951F920F920FB60F9211248F9316BC21
:101150008091260188BD8F910F900FBE0F901F9038
:1011600018950E9479080C949F080C948808CF93D6
:10117000DF93EC010E948808CE01DF91CF910C949F
:101180008A080C949F0824E1FC0111922A95E9F742
:101190000C946F09009741F0EFE9FFE03197F1F708
:1011A00000C000000197F6CF08950E9432070E9408
:1011B00028072FEF89E698E1215080409040E1F721
:1011C00000C000000E944A020E94FB010E94A60784
:1011D0000E94B10880E00E94000781E00E940007A1
:1011E00082E00E94000783E00C9400070E94FF0841
:1011F000FFCF059718F481E0809327010895CF93DE
:10120000DF93CDB7DEB764970FB6F894DEBF0FBE9D
:10121000CDBF89EF98E00E94D9070E9428070E945D
:101220004A020E94FB0141E251E060E080E00E943E
:10123000D2066EE273E0CE0101960E94C308AE01B1
:101240004F5F5F4F61E082E00E94D20680912701EC
:10125000811101C0FFCF64960FB6F894DEBF0FBEB8
:10126000CDBFDF91CF9108950E94D5080E94F60866
:10127000FDCFAA1BBB1B51E107C0AA1FBB1FA617AE
:10128000B70710F0A61BB70B881F991F5A95A9F72F
:1012900080959095BC01CD010895A1E21A2EAA1B5C
:1012A000BB1BFD010DC0AA1FBB1FEE1FFF1FA21716
:1012B000B307E407F50720F0A21BB30BE40BF50B13
:1012C000661F771F881F991F1A9469F7609570959C
:1012D000809590959B01AC01BD01CF010895FB0164
:1012E000DC0105900D920020E1F70895DC0101C0BA
:0E12F0006D9341505040E0F70895F894FFCF01
:1012FE00FF7F3F1F0F07030180C0E0F0F8FCFEFFE9
:10130E0020202020202020202020202020202020CF
:06131E0000546573740029
:00000001FF
