:100000000C9474000C9491000C9491000C94910049
:100010000C94C6060C9491000C9491000C949100E1
:100020000C9491000C9491000C9491000C9491000C
:100030000C9491000C9491000C9491000C945A072C
:100040000C9491000C9491000C9491000C949100EC
:100050000C9491000C9491000C9491000C949100DC
:100060000C9491000C9491003F065B4F666D7D07E8
:100070007F6FCD00C500BE00B500AD00A2009800A6
:100080008E008400382E5350415245203300372EC5
:100090005350415245203200362E53504152452094
:1000A0003100352E53455454494E475300342E5099
:1000B00049414E4F00332E54455452495300322E7D
:1000C000504F4E4700312E534E414B45004D454E4B
:1000D0005500DF00D60020202020202020200047CF
:1000E000414D4520424F580011241FBECFEFD8E0AC
:1000F000DEBFCDBF11E0A0E0B1E0EEE1F3E102C070
:1001000005900D92A232B107D9F725E0A2E2B1E045
:1001100001C01D92A932B207E1F70E9444090C9474
:100120008D090C9400008EE58CBD229A239A259AA5
:10013000209A249808958EBD0DB407FEFDCF089532
:10014000289A089528980895CF93C82F0E94A00058
:1001500088EF0E949B008C2F807F0E949B008C2F39
:100160008295807F0E949B00CF910C94A200CF9338
:10017000C82F0E94A0008AEF0E949B008C2F807FD6
:100180000E949B008C2F8295807F0E949B00CF91C4
:100190000C94A20084E30E94A40086E30C94A400C3
:1001A00080E30C94A400CF92DF92EF92FF920F9322
:1001B0001F93CF93DF930E94CA0087E2C82E81E08D
:1001C000D82EF12C8F2D869598E0980F9068E92E07
:1001D000D82FD0688601C0E0C03218F080EE8C0FB6
:1001E00001C08C2F80680E94A400C03210F48D2FB3
:1001F00001C08E2D0E94A400F80180810E94B700EA
:10020000F80181810E94B700CF5F005F1F4FC034AB
:1002100019F7F394F394F2E0CF0ED11C80E1F812B9
:10022000D1CFDF91CF911F910F91FF90EF90DF9091
:10023000CF90089540E054E06FEF70E087E291E0E6
:100240000C94860980E094E0E7E2F1E0DF019C0194
:100250001D9221503040E1F7089587FD57C060346A
:1002600008F054C04130510529F0E8F04230510502
:10027000A1F10895982F96959695969520E1629F05
:10028000F0011124E95DFE4FE90FF11D877020E8B0
:1002900030E0A90102C0559547958A95E2F7CA0159
:1002A0009081892B32C0982F96959695969550E11E
:1002B000659FF0011124E95DFE4FE90FF11D877084
:1002C00020E830E0A90102C0559547958A95E2F7EC
:1002D000CA0180959081892318C0982F969596958C
:1002E000969550E1659FF0011124E95DFE4FE90FFD
:1002F000F11D877020E830E0A90102C055954795AF
:100300008A95E2F7CA0190818927808308954F92E8
:100310005F926F927F928F929F92AF92BF92CF9295
:10032000DF92EF92FF920F931F93CF93DF93C82E2C
:10033000D62E742E622EC42FD0E0C81BD109D7FF51
:1003400003C0D195C195D109E62CF12CED18F10827
:10035000F7FE03C0F194E194F108C71418F04424A7
:100360004A9402C044244394D61418F055245A9455
:1003700002C0552453944E018E189F08AA24BB2412
:10038000AE18BF08A8016D2D8C2D0E942D01C7103D
:1003900002C0D61481F0C401880F991FA816B906AF
:1003A0001CF48E189F08C40C8C179D075CF78C0EEC
:1003B0009D1ED50CE7CFDF91CF911F910F91FF903C
:1003C000EF90DF90CF90BF90AF909F908F907F90F5
:1003D0006F905F904F900895CF93DF93982F977011
:1003E000E0E8F0E002C0F595E7959A95E2F7461748
:1003F00018F4962F642F492FBE2F21303105A9F014
:1004000098F12230310509F05EC070E09B0194E064
:10041000220F331F9A95E1F7869586958695280FCA
:10042000311D80E090E050E03FC070E09B01E4E0CF
:10043000220F331FEA95E1F7869586958695280F5A
:10044000311D80E090E0C42FD0E0C617D707DCF163
:10045000FC01E20FF31FE95DFE4F50815B2B5083DF
:100460006F5F7F4F4096F1CF70E09B0154E0220F09
:10047000331F5A95E1F7869586958695280F311D8D
:1004800080E090E0C42FD0E0E095C617D707DCF0FD
:10049000DC01A20FB31FA95DBE4F5C915E235C938C
:1004A0006F5F7F4F4096F1CF4617570764F0FC010E
:1004B000E20FF31FE95DFE4FA081AB27A0836F5FC2
:1004C0007F4F4096F1CFDF91CF910895CF92DF9289
:1004D000EF92FF920F931F93CF93DF93CDB7DEB7C9
:1004E00060970FB6F894DEBF0FBECDBF98E0E0E096
:1004F000F1E0DE01199601900D929A95E1F798E0EE
:10050000E8E0F1E0DE01119601900D929A95E1F795
:10051000E82FE695E695E695A62FA695A695A695CD
:10052000F0E0CA2ED12C681718F4982F862F692F67
:100530002130310539F008F45CC02230310509F46E
:10054000BAC00DC150E0877067709A01B4E0220F05
:10055000331FBA95E1F7295D3E4FEC15FD05C9F44F
:100560002E0F3F1F09E010E00C0F1D1F080F111D7B
:10057000A1E0B0E0AC0FBD1FA60FB11DBD01D801B9
:100580009C91DB018C918923D9019C91892B8C93BF
:100590001DC089010E0F1F1FA9E0B0E0AC0FBD1FE9
:1005A000A80FB11D9C91D8018C91892B8C93C90106
:1005B0008C0D9D1D21E030E02C0F3D1F260F311DBD
:1005C000D9013C91DC012C91232B2C93A4E0440F06
:1005D000551FAA95E1F72FEF3196EC15FD050CF0AC
:1005E000BEC0CF01840F951F895D9E4FDC012C9307
:1005F000F3CF50E087706770EC15FD0511F59A0197
:1006000074E0220F331F7A95E1F7295D3E4F2E0FDC
:100610003F1F09E010E00C0F1D1F080F111DA1E086
:10062000B0E0AC0FBD1FA60FB11DBD01D8019C915C
:10063000DB018C9189238095D9019C9189238C932E
:1006400028C08A0134E0000F111F3A95E1F7095DD7
:100650001E4F7801EE0EFF1E29E030E02C0F3D1FEB
:10066000280F311DD9019C919095D7012C9192238F
:100670009C93C8018C0D9D1D21E030E02C0F3D1F87
:10068000260F311DD9012C912095DC013C912323AB
:100690002C9324E0440F551F2A95E1F73196EC1571
:1006A000FD050CF05CC0CF01840F951F895D9E4F46
:1006B000DC011C92F3CF50E0877067709A0194E0E0
:1006C000220F331F9A95E1F7295D3E4FEC15FD058A
:1006D000B9F42E0F3F1F09E010E00C0F1D1F080F8B
:1006E000111DA1E0B0E0AC0FBD1FA60FB11DBD01F3
:1006F000D8019C91DB018C918923D9019C911AC06E
:1007000089010E0F1F1FA9E0B0E0AC0FBD1FA80F9D
:10071000B11D9C91D8018C9189278C932C0D3D1D86
:1007200081E090E08C0F9D1F860F911DDC019C9154
:10073000D9018C9189278C9384E0440F551F8A95A9
:10074000E1F73196EC15FD0554F4CF01840F951FA8
:10075000895D9E4FDC012C9120952C93F2CF609601
:100760000FB6F894DEBF0FBECDBFDF91CF911F91C2
:100770000F91FF90EF90DF90CF900895CF92DF928E
:10078000EF92FF920F931F93CF93DF93E82EC62F24
:10079000D42FF22E87FD48C0603408F045C0842F66
:1007A00090E08E0D911D8138910524F0D0E8DE197E
:1007B000D12C02C0DD24D3948F2D90E08C0F911D9D
:1007C000CC24CA94CE0C8134910524F080E4F82E18
:1007D000FC1A09C04FEF4F0D4C0F98016C2D6D0F97
:1007E0008E2D0E946602DC0D98014C2F6D2F8E2DF0
:1007F0000E9466028EEF8C0FF80ECF5F98014F2D8E
:100800006C2F8E2D0E94EC01DD2071F098014F2D90
:100810006C2F8D2FDF91CF911F910F91FF90EF9053
:10082000DF90CF900C94EC01DF91CF911F910F914D
:10083000FF90EF90DF90CF900895AF92BF92CF924C
:10084000DF92FF920F931F93CF93DF93F82E6801EF
:1008500087FD26C0603420F5842F90E08F0D911D18
:100860008138910514F040E84F19C62FD0E0CE0131
:10087000820F911D8134910514F020E4261B5E0146
:10088000A20EB11C1FEF1F0D140FCA15DB0544F497
:1008900096014C2F612F8F2D0E9466022196F5CF75
:1008A000DF91CF911F910F91FF90DF90CF90BF907C
:1008B000AF9008952F923F924F925F926F927F92E6
:1008C0008F929F92AF92BF92CF92DF92EF92FF9260
:1008D0000F931F93CF93DF9300D000D0CDB7DEB737
:1008E000782E662EB42E3C832B83042F10E081E0FB
:1008F00090E07C01E01AF10ACC24DD24C01AD10A70
:10090000CC0CDD1C642F660DA901872D0E942D01E2
:10091000662D6B194B815C81872D0E942D014B81C7
:100920005C81662D8B2D870D0E942D014B815C8192
:10093000662D872D8B190E942D0133243394370C9B
:1009400055245A94570CA12CB12C88248394912CB3
:10095000862D87198A83A016B1060CF050C0F7FCCB
:1009600007C00150110982E0C80ED11CEC0CFD1C1F
:100970008FEFA81AB80A82E0880E911CE80CF91CC7
:100980004B815C81462C400E642D832D0E942D01ED
:100990004B815C81642D852D0E942D014B815C81F2
:1009A000462C401A642D832D0E942D014B815C81C1
:1009B000642D852D0E942D014A80430C4B815C8162
:1009C000642D872D800F89830E942D014B815C81CE
:1009D000642D472C401A842D0E942D012A80250C5D
:1009E0004B815C81622D89810E942D014B815C814C
:1009F000622D842D0E942D0133945A94ACCF0F9018
:100A00000F900F900F90DF91CF911F910F91FF905A
:100A1000EF90DF90CF90BF90AF909F908F907F909E
:100A20006F905F904F903F902F9008952F923F923C
:100A30004F925F926F927F928F929F92AF92BF92EE
:100A4000CF92DF92EF92FF920F931F93CF93DF939A
:100A500000D01F92CDB7DEB7782E562E498369019C
:100A6000841B642F660F6F5F680F452D0E9466021E
:100A70009981892F90E09B838A8301E010E0081B15
:100A8000190B7C01F194E194F108EE0CFF1C662433
:100A90006A94670C92E0492E470CA12CB12C882453
:100AA0008394912C852D871989838A819B81A8162F
:100AB000B906D4F517FD0AC08A819B8101979B83F3
:100AC0008A8392E0E90EF11C0E0D1F1D8FEFA81A0C
:100AD000B80A92E0890E911C080D191D96014A81F1
:100AE000450D642D862D0E9466022A80270C2394D2
:100AF000452D4A0D9601622D372C8A81381A832D97
:100B00000E9466029601452D9A81491B642D862D0F
:100B10000E9466024981460D9601622D832D0E9436
:100B200066026A944394C1CF0F900F900F90DF91AB
:100B3000CF911F910F91FF90EF90DF90CF90BF90DA
:100B4000AF909F908F907F906F905F904F903F906D
:100B50002F900895FF920F931F93CF93DF93D82F79
:100B6000162FF42E052F0E94D000113059F038F0C6
:100B7000123059F0133059F4CD2FC86908C0CD2F69
:100B8000C06805C0CD2FC06902C0CD2FC8688C2FAA
:100B90000E94A400CF2DD02F8991882319F00E94A4
:100BA000B700FACFDF91CF911F910F91FF90089579
:100BB0001F93CF93DF93CDB7DEB761970FB6F8944D
:100BC000DEBF0FBECDBF182F81E1E0E1F1E0DE0115
:100BD000119601900D928A95E1F70E94D000AE0126
:100BE0004F5F5F4F612F80E00E94AA0561960FB6AC
:100BF000F894DEBF0FBECDBFDF91CF911F91089556
:100C000081E00E94A4008FE39CE90197F1F700C006
:100C1000000008952FEF81EE94E021508040904035
:100C2000E1F700C000000E94930080E30E94A4004E
:100C300082E00E94A4000E94000686E00E94A400B8
:100C40008CE00C94A4005C980895CF92DF92EF9210
:100C5000FF920F931F93CF93DF938C01D62F5B9856
:100C60000E942306C0E0CD17E9F087E0C82ED12C02
:100C70007801EC0EF11C0E942306F701808190E0C0
:100C80000C2C02C0959587950A94E2F780FF02C06C
:100C90005A9A01C05A985C9AF1E0CF1AD10858F7D5
:100CA000CF5FE1CF5B9ADF91CF911F910F91FF90C2
:100CB000EF90DF90CF900C942306CF93DF9300D07A
:100CC0001F92CDB7DEB719821A821B828AB18C615E
:100CD0008AB95B980E9423065A988FE39FE1019797
:100CE000F1F700C0000063E0CE0101960E942506E6
:100CF0000F900F900F90DF91CF9108950C945D06A7
:100D00000F931F93CF93DF9300D01F92CDB7DEB721
:100D1000883E23E09207E8F419821A821B8222E0BF
:100D20000AE010E0B8010E944909FC01E859FF4FB0
:100D3000E491A1E0B0E0AC0FBD1FA20FB11DEC9398
:100D4000CB012150009771F763E0CE0101960E941C
:100D500025060F900F900F90DF91CF911F910F916B
:100D6000089538983A983B983C983998E8E6F0E02E
:100D7000208122602083ECE6F0E020812F61208337
:100D80009093280580932705789408951F920F92D9
:100D90000FB60F9211242F933F934F935F936F934E
:100DA0007F938F939F93AF93BF93EF93FF93809124
:100DB0006C00807E80936C002FEF8AE693E02150D8
:100DC00080409040E1F700C00000309B09C0E091F6
:100DD0002705F091280561E070E081E090E0099539
:100DE000329B09C0E0912705F091280561E070E091
:100DF00082E090E00995339B09C0E0912705F091CE
:100E0000280561E070E083E090E00995349B09C01B
:100E1000E0912705F091280561E070E084E090E022
:100E20000995319B09C0E0912705F091280561E003
:100E300070E085E090E0099580916C008F6180936F
:100E40006C00FF91EF91BF91AF919F918F917F9136
:100E50006F915F914F913F912F910F900FBE0F9027
:100E60001F901895559A84B5826184BD85B58560BB
:100E700085BDEEE6F0E080818460808318BC7894C4
:100E80000895559A0895A0E0B0E09C01AD018BE073
:100E9000220F331F441F551F8A95D1F760E074E27B
:100EA00084EF90E00E945D09215020932201089573
:100EB000559808951F920F920FB60F9211248F9399
:100EC00016BC8091220188BD8F910F900FBE0F90AC
:100ED0001F9018950E9432070C9458070C944107F4
:100EE000CF93DF93EC010E944107CE01DF91CF91B8
:100EF0000C9443070C94580790932401809323018A
:100F0000089524E1FC0111922A95E9F7FB0165910E
:100F100074910C947F090E940A060E9400062FEF2C
:100F200089E698E1215080409040E1F700C0000040
:100F30000E9422010E94D3000E947E068BE292E072
:100F40000E9480068CE797E00E94B1060E946A0723
:100F500081E090E0909326018093250180E00E943B
:100F6000D80581E00E94D80582E00E94D80583E080
:100F70000C94D8050F931F93CF93DF93CDB7DEB7B3
:100F800064970FB6F894DEBF0FBECDBF62ED70E080
:100F9000CE0101960E948107AE014F5F5F4F61E075
:100FA00082E00E94AA058091230190912401892B5F
:100FB000A1F401E010E024E146E46DE08EE10E943E
:100FC0001D040E94D3002FEF83EC99E02150804054
:100FD0009040E1F700C00000E6CF64ED70E0CE0184
:100FE00001960E948107AE014F5F5F4F61E082E092
:100FF0000E94AA050E9422010E94D300109224019F
:101000001092230182E090E09093260180932501C5
:1010100064960FB6F894DEBF0FBECDBFDF91CF91BF
:101020001F910F910895EF92FF920F931F93CF930B
:10103000DF93CDB7DEB765970FB6F894DEBF0FBE6E
:10104000CDBF0E9400068FE39CE90197F1F700C035
:1010500000000E9422010E94D30062E770E0CE01EE
:1010600001960E948107AE014F5F5F4F60E083E011
:101070000E94AA051D8A109224011092230160E1AA
:10108000F62E8091250190912601029709F0C3C0A8
:101090008D89823019F053E0E52E02C042E0E42E43
:1010A00001E010E02FE040E86F2D80E00E941D0479
:1010B00011E08D89612F70E093E08902600D711D50
:1010C0001124660F771F6E587F4FCE0101960E9444
:1010D0008107AE014F5F5F4F612F80E00E94AA053C
:1010E0001F5FE11630F78091230190912401823037
:1010F000910581F18330910509F461C0019709F0F0
:1011000087C000E010E02FE040E86F2D80E00E94F3
:101110001D04109224011092230140EFF40E8FE081
:101120008F150CF475C08D89882309F46FC08D89E3
:1011300018160CF06DC08D8981508D8B81E00E9456
:10114000D80582E00E94D80583E00E94D80520E3FC
:10115000F22E5EC000E010E02FE040E86F2D80E04E
:101160000E941D04109224011092230190E1F90EB7
:101170002F2D0F2C000C330B40E1E49EC0011124F5
:10118000821793070CF044C08D89823029F4FE2C1D
:10119000F29490EFF9223CC08D898230CCF58D8994
:1011A00087FD36C08D898F5F8D8B81E00E94D805C9
:1011B00082E00E94D80583E00E94D80527C03D89BF
:1011C0009F2DF7FE02C09FE09F0D292F25952595A5
:1011D000259525954E2D3403C0011124820F911DB4
:1011E00027FD9A95029690932601809325010E94EF
:1011F000800600E010E02FE040E86F2D80E00E94C4
:101200001D04109224011092230102C080E1F82EE7
:101210000E94D30036CF80E00E94D80581E00E9472
:10122000D80582E00E94D80583E00E94D8050E947C
:10123000220110922401109223010E94D30065968E
:101240000FB6F894DEBF0FBECDBFDF91CF911F91D7
:101250000F91FF90EF900895C1E0D0E080912501BB
:10126000909126018130910561F030F08230910536
:10127000C9F70E941308F2CFD0932601C09325012D
:10128000EDCF0E94BA07EACF0E948B070E942C097B
:10129000FDCFAA1BBB1B51E107C0AA1FBB1FA6178E
:1012A000B70710F0A61BB70B881F991F5A95A9F70F
:1012B00080959095BC01CD010895A1E21A2EAA1B3C
:1012C000BB1BFD010DC0AA1FBB1FEE1FFF1FA217F6
:1012D000B307E407F50720F0A21BB30BE40BF50BF3
:1012E000661F771F881F991F1A9469F7609570957C
:1012F000809590959B01AC01BD01CF010895FB0144
:10130000DC0105900D920020E1F70895DC0101C099
:0E1310006D9341505040E0F70895F894FFCFE0
:10131E00FF7F3F1F0F07030180C0E0F0F8FCFEFFC8
:10132E0020202020202020202020202020202020AF
:02133E000000AD
:00000001FF
