:100000000C947B000C9498000C9498000C9498002D
:100010000C94CD060C9498000C9498000C949800C5
:100020000C9498000C9498000C9498000C949800F0
:100030000C9498000C9498000C9498000C94580719
:100040000C9498000C9498000C9498000C949800D0
:100050000C9498000C9498000C9498000C949800C0
:100060000C9498000C9498003F065B4F666D7D07DA
:100070007F6F7B0076004F5645520047414D45004B
:10008000DB00D300CC00C300BB00B000A6009C0086
:100090009200382E5350415245203300372E535092
:1000A000415245203200362E5350415245203100F6
:1000B000352E53455454494E475300342E50494130
:1000C0004E4F00332E54455452495300322E504F58
:1000D0004E4700312E534E414B45004D454E550085
:1000E000ED00E40020202020202020200047414D6A
:1000F0004520424F580011241FBECFEFD8E0DEBF8D
:10010000CDBF11E0A0E0B1E0E4EAF7E102C0059064
:100110000D92A232B107D9F725E0A2E2B1E001C009
:100120001D92A932B207E1F70E94870B0C94D00B05
:100130000C9400008EE58CBD229A239A259A209A71
:10014000249808958EBD0DB407FEFDCF0895289A1A
:10015000089528980895CF93C82F0E94A70088EF8C
:100160000E94A2008C2F807F0E94A2008C2F82957B
:10017000807F0E94A200CF910C94A900CF93C82F3A
:100180000E94A7008AEF0E94A2008C2F807F0E940D
:10019000A2008C2F8295807F0E94A200CF910C94A8
:1001A000A90084E30E94AB0086E30C94AB0080E3DB
:1001B0000C94AB00CF92DF92EF92FF920F931F93BC
:1001C000CF93DF930E94D10087E2C82E81E0D82E22
:1001D000F12C8F2D869598E0980F9068E92ED82FF6
:1001E000D0688601C0E0C03218F080EE8C0F01C0EC
:1001F0008C2F80680E94AB00C03210F48D2F01C09C
:100200008E2D0E94AB00F80180810E94BE00F80193
:1002100081810E94BE00CF5F005F1F4FC03419F77D
:10022000F394F394F2E0CF0ED11C80E1F812D1CF19
:10023000DF91CF911F910F91FF90EF90DF90CF90C2
:10024000089540E054E06FEF70E087E291E00C9495
:10025000C90B80E094E0E7E2F1E0DF019C011D9230
:1002600021503040E1F7089587FD57C0603408F011
:1002700054C04130510529F0E8F042305105A1F158
:100280000895982F96959695969520E1629FF00196
:100290001124E95DFE4FE90FF11D877020E830E081
:1002A000A90102C0559547958A95E2F7CA01908148
:1002B000892B32C0982F96959695969550E1659F1B
:1002C000F0011124E95DFE4FE90FF11D877020E870
:1002D00030E0A90102C0559547958A95E2F7CA0119
:1002E00080959081892318C0982F9695969596951C
:1002F00050E1659FF0011124E95DFE4FE90FF11D0A
:10030000877020E830E0A90102C0559547958A958D
:10031000E2F7CA0190818927808308954F925F9206
:100320006F927F928F929F92AF92BF92CF92DF9205
:10033000EF92FF920F931F93CF93DF93C82ED62E89
:10034000742E622EC42FD0E0C81BD109D7FF03C082
:10035000D195C195D109E62CF12CED18F108F7FEE5
:1003600003C0F194E194F108C71418F044244A94AE
:1003700002C044244394D61418F055245A9402C061
:10038000552453944E018E189F08AA24BB24AE18FE
:10039000BF08A8016D2D8C2D0E943401C71002C02A
:1003A000D61481F0C401880F991FA816B9061CF451
:1003B0008E189F08C40C8C179D075CF78C0E9D1E31
:1003C000D50CE7CFDF91CF911F910F91FF90EF9068
:1003D000DF90CF90BF90AF909F908F907F906F9065
:1003E0005F904F900895CF93DF93982F9770E0E838
:1003F000F0E002C0F595E7959A95E2F7461718F4F4
:10040000962F642F492FBE2F21303105A9F098F186
:100410002230310509F05EC070E09B0194E0220FAC
:10042000331F9A95E1F7869586958695280F311D9D
:1004300080E090E050E03FC070E09B01E4E0220FDC
:10044000331FEA95E1F7869586958695280F311D2D
:1004500080E090E0C42FD0E0C617D707DCF1FC01A4
:10046000E20FF31FE95DFE4F50815B2B50836F5FFE
:100470007F4F4096F1CF70E09B0154E0220F331F75
:100480005A95E1F7869586958695280F311D80E06F
:1004900090E0C42FD0E0E095C617D707DCF0DC0170
:1004A000A20FB31FA95DBE4F5C915E235C936F5F8B
:1004B0007F4F4096F1CF4617570764F0FC01E20FDB
:1004C000F31FE95DFE4FA081AB27A0836F5F7F4FD5
:1004D0004096F1CFDF91CF910895CF92DF92EF92C6
:1004E000FF920F931F93CF93DF93CDB7DEB7609743
:1004F0000FB6F894DEBF0FBECDBF98E0E0E0F1E0AC
:10050000DE01199601900D929A95E1F798E0E8E0E6
:10051000F1E0DE01119601900D929A95E1F7E82F36
:10052000E695E695E695A62FA695A695A695F0E004
:10053000CA2ED12C681718F4982F862F692F2130D6
:10054000310539F008F45CC02230310509F4BAC035
:100550000DC150E0877067709A01B4E0220F331F1D
:10056000BA95E1F7295D3E4FEC15FD05C9F42E0F54
:100570003F1F09E010E00C0F1D1F080F111DA1E027
:10058000B0E0AC0FBD1FA60FB11DBD01D8019C91FD
:10059000DB018C918923D9019C91892B8C931DC0FF
:1005A00089010E0F1F1FA9E0B0E0AC0FBD1FA80FFF
:1005B000B11D9C91D8018C91892B8C93C9018C0D14
:1005C0009D1D21E030E02C0F3D1F260F311DD9016C
:1005D0003C91DC012C91232B2C93A4E0440F551F5C
:1005E000AA95E1F72FEF3196EC15FD050CF0BEC092
:1005F000CF01840F951F895D9E4FDC012C93F3CFB3
:1006000050E087706770EC15FD0511F59A0174E0F4
:10061000220F331F7A95E1F7295D3E4F2E0F3F1FC2
:1006200009E010E00C0F1D1F080F111DA1E0B0E044
:10063000AC0FBD1FA60FB11DBD01D8019C91DB0100
:100640008C9189238095D9019C9189238C9328C012
:100650008A0134E0000F111F3A95E1F7095D1E4F42
:100660007801EE0EFF1E29E030E02C0F3D1F280F11
:10067000311DD9019C919095D7012C9192239C9387
:10068000C8018C0D9D1D21E030E02C0F3D1F260F71
:10069000311DD9012C912095DC013C9123232C9311
:1006A00024E0440F551F2A95E1F73196EC15FD051E
:1006B0000CF05CC0CF01840F951F895D9E4FDC015B
:1006C0001C92F3CF50E0877067709A0194E0220F7C
:1006D000331F9A95E1F7295D3E4FEC15FD05B9F4FE
:1006E0002E0F3F1F09E010E00C0F1D1F080F111DFA
:1006F000A1E0B0E0AC0FBD1FA60FB11DBD01D80138
:100700009C91DB018C918923D9019C911AC08901AC
:100710000E0F1F1FA9E0B0E0AC0FBD1FA80FB11D49
:100720009C91D8018C9189278C932C0D3D1D81E0E3
:1007300090E08C0F9D1F860F911DDC019C91D901CB
:100740008C9189278C9384E0440F551F8A95E1F79B
:100750003196EC15FD0554F4CF01840F951F895D8A
:100760009E4FDC012C9120952C93F2CF60960FB612
:10077000F894DEBF0FBECDBFDF91CF911F910F91D7
:10078000FF90EF90DF90CF900895CF92DF92EF929D
:10079000FF920F931F93CF93DF93E82EC62FD42F92
:1007A000F22E87FD48C0603408F045C0842F90E0E9
:1007B0008E0D911D8138910524F0D0E8DE19D12CE1
:1007C00002C0DD24D3948F2D90E08C0F911DCC249A
:1007D000CA94CE0C8134910524F080E4F82EFC1AE2
:1007E00009C04FEF4F0D4C0F98016C2D6D0F8E2DE2
:1007F0000E946D02DC0D98014C2F6D2F8E2D0E94F2
:100800006D028EEF8C0FF80ECF5F98014F2D6C2F7D
:100810008E2D0E94F301DD2071F098014F2D6C2F79
:100820008D2FDF91CF911F910F91FF90EF90DF906F
:10083000CF900C94F301DF91CF911F910F91FF9016
:10084000EF90DF90CF900895AF92BF92CF92DF925A
:10085000FF920F931F93CF93DF93F82E680187FDCC
:1008600026C0603420F5842F90E08F0D911D8138D3
:10087000910514F040E84F19C62FD0E0CE01820F49
:10088000911D8134910514F020E4261B5E01A20E17
:10089000B11C1FEF1F0D140FCA15DB0544F49601A0
:1008A0004C2F612F8F2D0E946D022196F5CFDF9185
:1008B000CF911F910F91FF90DF90CF90BF90AF909D
:1008C00008952F923F924F925F926F927F928F92F4
:1008D0009F92AF92BF92CF92DF92EF92FF920F93CF
:1008E0001F93CF93DF9300D000D0CDB7DEB7782E23
:1008F000662EB42E3C832B83042F10E081E090E021
:100900007C01E01AF10ACC24DD24C01AD10ACC0CF7
:10091000DD1C642F660DA901872D0E943401662D10
:100920006B194B815C81872D0E9434014B815C8166
:10093000662D8B2D870D0E9434014B815C81662DC5
:10094000872D8B190E94340133243394370C55249E
:100950005A94570CA12CB12C88248394912C862D69
:1009600087198A83A016B1060CF050C0F7FC07C0A7
:100970000150110982E0C80ED11CEC0CFD1C8FEF58
:10098000A81AB80A82E0880E911CE80CF91C4B8169
:100990005C81462C400E642D832D0E9434014B81D6
:1009A0005C81642D852D0E9434014B815C81462C35
:1009B000401A642D832D0E9434014B815C81642D8B
:1009C000852D0E9434014A80430C4B815C81642D4B
:1009D000872D800F89830E9434014B815C81642DB7
:1009E000472C401A842D0E9434012A80250C4B810B
:1009F0005C81622D89810E9434014B815C81622D72
:100A0000842D0E94340133945A94ACCF0F900F90F0
:100A10000F900F90DF91CF911F910F91FF90EF906A
:100A2000DF90CF90BF90AF909F908F907F906F900E
:100A30005F904F903F902F9008952F923F924F924A
:100A40005F926F927F928F929F92AF92BF92CF925E
:100A5000DF92EF92FF920F931F93CF93DF9300D01B
:100A60001F92CDB7DEB7782E562E49836901841BBD
:100A7000642F660F6F5F680F452D0E946D0299818C
:100A8000892F90E09B838A8301E010E0081B190BFB
:100A90007C01F194E194F108EE0CFF1C66246A9449
:100AA000670C92E0492E470CA12CB12C882483942A
:100AB000912C852D871989838A819B81A816B90677
:100AC000D4F517FD0AC08A819B8101979B838A8395
:100AD00092E0E90EF11C0E0D1F1D8FEFA81AB80A47
:100AE00092E0890E911C080D191D96014A81450D51
:100AF000642D862D0E946D022A80270C2394452D9B
:100B00004A0D9601622D372C8A81381A832D0E9456
:100B10006D029601452D9A81491B642D862D0E94F8
:100B20006D024981460D9601622D832D0E946D0252
:100B30006A944394C1CF0F900F900F90DF91CF91A3
:100B40001F910F91FF90EF90DF90CF90BF90AF90EB
:100B50009F908F907F906F905F904F903F902F90DD
:100B60000895FF920F931F93CF93DF93D82F162FE3
:100B7000F42E052F0E94D700113059F038F01230B2
:100B800059F0133059F4CD2FC86908C0CD2FC06873
:100B900005C0CD2FC06902C0CD2FC8688C2F0E9420
:100BA000AB00CF2DD02F8991882319F00E94BE0071
:100BB000FACFDF91CF911F910F91FF9008951F936E
:100BC000CF93DF93CDB7DEB761970FB6F894DEBF52
:100BD0000FBECDBF182F81E1E0E1F1E0DE011196FB
:100BE00001900D928A95E1F70E94D700AE014F5F08
:100BF0005F4F612F80E00E94B10561960FB6F894B7
:100C0000DEBF0FBECDBFDF91CF911F91089581E070
:100C10000E94AB008FE39CE90197F1F700C0000050
:100C200008952FEF81EE94E0215080409040E1F74D
:100C300000C000000E949A0080E30E94AB0082E0A6
:100C40000E94AB000E94070686E00E94AB008CE089
:100C50000C94AB005C980895CF92DF92EF92FF92D4
:100C60000F931F93CF93DF938C01D62F5B980E9435
:100C70002A06C0E0CD17E9F087E0C82ED12C780114
:100C8000EC0EF11C0E942A06F701808190E00C2CEA
:100C900002C0959587950A94E2F780FF02C05A9AA0
:100CA00001C05A985C9AF1E0CF1AD10858F7CF5F8B
:100CB000E1CF5B9ADF91CF911F910F91FF90EF9061
:100CC000DF90CF900C942A06CF93DF9300D01F9231
:100CD000CDB7DEB719821A821B828AB18C618AB9BC
:100CE0005B980E942A065A988FE39FE10197F1F7DB
:100CF00000C0000063E0CE0101960E942C060F9018
:100D00000F900F90DF91CF9108950C9464060F938C
:100D10001F93CF93DF9300D01F92CDB7DEB7883EED
:100D200023E09207E8F419821A821B8222E00AE08B
:100D300010E0B8010E948C0BFC01E859FF4FE491D0
:100D4000A1E0B0E0AC0FBD1FA20FB11DEC93CB0131
:100D50002150009771F763E0CE0101960E942C06A6
:100D60000F900F900F90DF91CF911F910F910895E9
:100D700038983A983B983C983998E8E6F0E020811A
:100D800022602083ECE6F0E020812F6120839093A5
:100D9000280580932705789408951F920F920FB627
:100DA0000F9211242F933F934F935F936F937F93F1
:100DB0008F939F93AF93BF93EF93FF9380916C00BA
:100DC000807E80936C00309B09C0E0912705F091F4
:100DD000280561E070E081E090E00995329B09C050
:100DE000E0912705F091280561E070E082E090E055
:100DF0000995339B09C0E0912705F091280561E032
:100E000070E083E090E00995349B09C0E0912705EC
:100E1000F091280561E070E084E090E00995319B55
:100E200009C0E0912705F091280561E070E085E0B8
:100E300090E0099580916C008F6180936C00FF9128
:100E4000EF91BF91AF919F918F917F916F915F9142
:100E50004F913F912F910F900FBE0F901F901895BB
:100E6000559A84B5826184BD85B5856085BDEEE601
:100E7000F0E080818460808318BC78940895559A4E
:100E80000895A0E0B0E09C01AD018BE0220F331F7C
:100E9000441F551F8A95D1F760E074E284EF90E01B
:100EA0000E94A00B21502093220108955598089587
:100EB0001F920F920FB60F9211248F9316BC809140
:100EC000220188BD8F910F900FBE0F901F90189533
:100ED0000E9430070C9456070C943F07CF93DF9382
:100EE000EC010E943F07CE01DF91CF910C944107A6
:100EF0000C9456079093240180932301089524E1D4
:100F0000FC0111922A95E9F7FB01659174910C940B
:100F1000C20B0E9411060E9407062FEF89E698E196
:100F2000215080409040E1F700C000000E9429015C
:100F30000E94DA000E9485068BE292E00E948706FA
:100F40008AE797E00E94B8060E94680781E090E077
:100F5000909326018093250180E00E94DF0581E0C7
:100F60000E94DF0582E00E94DF0583E00C94DF052C
:100F70000F931F93CF93DF93CDB7DEB764970FB670
:100F8000F894DEBF0FBECDBF60EE70E0CE010196DB
:100F90000E947F07AE014F5F5F4F61E082E00E94D9
:100FA000B10501E010E024E146E46DE08EE10E942D
:100FB00024040E94DA0080E090E020912301309127
:100FC0002401232B09F05AC08436910510F084E6E1
:100FD00090E08C010F5F1F4F0E94870683E992E02B
:100FE0000E946E072FEF81EE94E0215080409040E8
:100FF000E1F700C000008EE692E00E946E072FEF3E
:1010000080E792E0215080409040E1F700C000006E
:101010008EEE91E00E946E072FEF80E792E0215064
:1010200080409040E1F700C000008BE492E00E9415
:101030006E072FEF80E792E0215080409040E1F76B
:1010400000C000008BE092E00E946E072FEF80E767
:1010500092E0215080409040E1F700C0000088EB12
:1010600091E00E946E072FEF80E792E021508040D0
:101070009040E1F700C00000C8019FCF0E947807B0
:1010800080E090E00E94870662EE70E0CE0101965B
:101090000E947F07AE014F5F5F4F61E082E00E94D8
:1010A000B1050E9429010E94DA00109224011092D9
:1010B000230182E090E090932601809325016496BD
:1010C0000FB6F894DEBF0FBECDBFDF91CF911F9159
:1010D0000F910895EF92FF920F931F93CF93DF9399
:1010E000CDB7DEB765970FB6F894DEBF0FBECDBFA4
:1010F0000E9407068FE39CE90197F1F700C000000A
:101100000E9429010E94DA0060E870E0CE01019699
:101110000E947F07AE014F5F5F4F60E083E00E9457
:10112000B1051D8A109224011092230160E1F62E70
:101130008091250190912601029709F0C1C08D8907
:10114000823019F053E0E52E02C042E0E42E01E0C7
:1011500010E02FE040E86F2D80E00E94240411E0B1
:101160008D89612F70E093E08902600D711D11245B
:10117000660F771F60587F4FCE0101960E947F0750
:10118000AE014F5F5F4F612F80E00E94B1051F5F8E
:10119000E11630F78091230190912401823091056E
:1011A00081F18330910509F461C0019709F085C090
:1011B00000E010E02FE040E86F2D80E00E94240462
:1011C000109224011092230140EFF40E8FE08F154E
:1011D0000CF473C08D89882309F46DC08D891816AD
:1011E0000CF06BC08D8981508D8B81E00E94DF05F2
:1011F00082E00E94DF0583E00E94DF0520E3F22EFB
:101200005CC000E010E02FE040E86F2D80E00E941D
:101210002404109224011092230190E1F90E2F2D45
:101220000F2C000C330B40E1E49EC0011124821707
:1012300093070CF042C08D89823029F4FE2CF29481
:1012400090EFF9223AC08D898230BCF58D8987FDF7
:1012500034C08D898F5F8D8B81E00E94DF0582E035
:101260000E94DF0583E00E94DF0525C03D899F2D98
:10127000F7FE02C09FE09F0D292F25952595259506
:1012800025954E2D3403C0011124820F911D27FD99
:101290009A950296909326018093250100E010E034
:1012A0002FE040E86F2D80E00E942404109224017A
:1012B0001092230102C080E1F82E0E94DA0038CF9C
:1012C00080E00E94DF0581E00E94DF0582E00E944D
:1012D000DF0583E00E94DF050E94290110922401AE
:1012E000109223010E94DA0065960FB6F894DEBFD3
:1012F0000FBECDBFDF91CF911F910F91FF90EF9067
:1013000008954F925F926F927F928F929F92AF92C9
:10131000BF92CF92DF92EF92FF920F931F93CF93E2
:10132000DF93CDB7DEB764970FB6F894DEBF0FBE7C
:10133000CDBF64E870E0CE0101960E947F07AE0148
:101340004D5F5F4F61E083E00E94B10562E770E0AE
:10135000CE0101960E947F07AE014F5F5F4F62E0B2
:1013600083E00E94B10521E030E044E160E280E4E6
:101370000E941D050E94DA008091230190912401B2
:10138000892BD1F3109224011092230181E00E9455
:10139000DF0582E00E94DF050E94290101E010E0E4
:1013A00020E440E860E080E00E94C5032EE34EE7C1
:1013B00061E081E00E94C5030E94DA002EEF622EF8
:1013C00077247A9435E0C32ED12C412C512C40E265
:1013D000842E912C50E4A52EB12C66E3E62EF12C40
:1013E0008091250190912601049709F0BBC080915E
:1013F0002301909124010497B9F4109224011092D2
:10140000230100E010E024E044E164E38E2D0E941B
:10141000240484E0E81AF10882E0E816F10404F5F7
:1014200092E0E92EF12C1CC08091230190912401BF
:101430000597B1F4109224011092230100E010E00E
:1014400024E044E164E38E2D0E94240484E0E80E4D
:10145000F11C8BE6E816F1041CF08AE6E82EF12C6C
:1014600084E0A816B10424F08BE7A816B1045CF060
:1014700020E030E042E0682D8A2D0E941D05D194C5
:10148000C194D10843C084E0881691045CF420E044
:1014900030E042E0682D8A2D0E941D057194619410
:1014A000710834C08DE3881691043CF08FEF90E012
:1014B000909326018093250155C082E388169104FC
:1014C00029F5AE14BF0474F0C7010A968A159B056E
:1014D0004CF0719461947108D7FE12C0D194C194FC
:1014E000D1080EC0C70109968A159B057CF40B969E
:1014F0008A159B055CF0719461947108D7FE03C056
:10150000D194C194D1088FEF481A580A20E030E0F6
:1015100042E0682D8A2D0E941D05AC0CBD1C860C76
:10152000971C01E010E024E044E164E38E2D0E946A
:10153000240421E030E042E0682D8A2D0E941D0540
:1015400020E440E860E080E00E94C5032EE34EE71F
:1015500061E081E00E94C5030E94DA00C2010E949E
:1015600087063ECF0E9429010E94DA0010922401D2
:101570001092230164960FB6F894DEBF0FBECDBF64
:10158000DF91CF911F910F91FF90EF90DF90CF905F
:10159000BF90AF909F908F907F906F905F904F9093
:1015A00008950F931F93CF93DF93CDB7DEB7649762
:1015B0000FB6F894DEBF0FBECDBF62E770E0CE017C
:1015C00001960E947F07AE014F5F5F4F61E083E0AD
:1015D0000E94B10564E770E0CE0101960E947F078A
:1015E000AE014F5F5F4F62E083E00E94B10501E012
:1015F00010E020E242E36FE088E20E94C5030E940F
:10160000DA008091230190912401892BA9F586E0CD
:1016100091E00E946E072FEF80E792E0215080401A
:101620009040E1F700C0000088E891E00E946E075A
:101630002FEF80E792E0215080409040E1F700C01A
:10164000000086E291E00E946E072FEF80E792E0B3
:10165000215080409040E1F700C000008DE591E00E
:101660000E946E072FEF80E792E02150804090406B
:10167000E1F700C00000C5CF0E94780781E00E941A
:10168000DF0582E00E94DF050E9429010E94DA0046
:10169000109224011092230180E090E00E948706BE
:1016A00082E090E0909326018093250164960FB626
:1016B000F894DEBF0FBECDBFDF91CF911F910F9188
:1016C0000895C1E0D0E080912501909126018230FB
:1016D0009105B9F040F4009779F081309105B9F7A0
:1016E0000E94B807F0CF8430910571F08F3F9105CB
:1016F00071F70E94D10AE7CFD0932601C09325014C
:10170000E2CF0E946A08DFCF0E948109DCCF0E94ED
:1017100089070E94610BFDCFAA1BBB1B51E107C0CB
:10172000AA1FBB1FA617B70710F0A61BB70B881F71
:10173000991F5A95A9F780959095BC01CD01089500
:10174000A1E21A2EAA1BBB1BFD010DC0AA1FBB1FC5
:10175000EE1FFF1FA217B307E407F50720F0A21B37
:10176000B30BE40BF50B661F771F881F991F1A94A4
:1017700069F760957095809590959B01AC01BD01CE
:10178000CF010895FB01DC0105900D920020E1F7E7
:101790000895DC0101C06D9341505040E0F7089579
:0417A000F894FFCFEB
:1017A400FF7F3F1F0F07030180C0E0F0F8FCFEFF3E
:1017B4002020202020202020202020202020202025
:0217C400000023
:00000001FF
