:100000000C9434000C9446000C9446000C9446006A
:100010000C9446000C9446000C9446000C94460048
:100020000C9446000C9446000C9446000C94460038
:100030000C9446000C9446000C9446000C94460028
:100040000C9446000C9446000C9446000C94460018
:100050000C9446000C9446000C9446000C94460008
:100060000C9446000C94460011241FBECFEFD8E03C
:10007000DEBFCDBF25E0A0E0B1E001C01D92A03001
:10008000B207E1F70E948D010C94DA010C94000094
:100090008EE58CBD229A239A259A209A2498089559
:1000A0008EBD0DB407FEFDCF0895289A08952898B7
:1000B0000895CF93C82F0E94550088EF0E945000EA
:1000C0008C2F807F0E9450008C2F8295807F0E9411
:1000D0005000CF910C945700CF93C82F0E94550029
:1000E0008AEF0E9450008C2F807F0E9450008C2F3E
:1000F0008295807F0E945000CF910C94570084E33A
:100100000E94590086E30C94590080E30C94590036
:10011000CF92DF92EF92FF920F931F93CF93DF93D3
:100120000E947F0080E0C82E81E0D82EF12C8F2D18
:10013000869598E0980F9068E92ED82FD0688601B0
:10014000C0E0C03218F080EE8C0F01C08C2F8068A8
:100150000E945900C03210F48D2F01C08E2D0E94D4
:100160005900F80180810E946C00F80181810E9491
:100170006C00CF5F005F1F4FC03419F7F394F39406
:10018000F2E0CF0ED11C80E1F812D1CFDF91CF91F8
:100190001F910F91FF90EF90DF90CF90089540E076
:1001A00054E06FEF70E080E091E00C94D30180E0C8
:1001B00094E0E0E0F1E0DF019C011D92215030402D
:1001C000E1F7089587FD57C0603408F054C041300E
:1001D000510529F0E8F042305105A1F10895982F1A
:1001E00096959695969520E1629FF0011124E05036
:1001F000FF4FE90FF11D877020E830E0A90102C030
:10020000559547958A95E2F7CA019081892B32C0AE
:10021000982F96959695969550E1659FF00111243B
:10022000E050FF4FE90FF11D877020E830E0A90191
:1002300002C0559547958A95E2F7CA01809590814D
:10024000892318C0982F96959695969550E1659FAD
:10025000F0011124E050FF4FE90FF11D877020E8F5
:1002600030E0A90102C0559547958A95E2F7CA0189
:100270009081892780830895FF920F931F93CF93D6
:10028000DF93D82F162FF42E052F0E9485001130F2
:1002900059F038F0123059F0133059F4CD2FC869A5
:1002A00008C0CD2FC06805C0CD2FC06902C0CD2FBA
:1002B000C8688C2F0E945900CF2DD02F8991882398
:1002C00019F00E946C00FACFDF91CF911F910F912E
:1002D000FF90089581E00E9459008FE39FE101970C
:1002E000F1F700C0000008952FEF81EE94E0215057
:1002F00080409040E1F700C000000E94480080E389
:100300000E94590082E00E9459000E946A0186E022
:100310000E9459008CE00C9459000E9474010E94C4
:100320006A010E94CF000E9488002FEF83ED90E3C6
:10033000215080409040E1F700C000000E94D700AB
:100340000E94880041E050E060E080E00E94E2000E
:1003500041E050E06FE380E00E94E20041E050E0C5
:1003600060E08FE70E94E20041E050E06FE38FE73A
:100370000E94E2000E9488002FEF83ED90E321505D
:1003800080409040E1F700C000000E94D7000E942A
:1003900088002FEF83ED90E3215080409040E1F7FB
:1003A00000C00000CFCFDC0101C06D934150504030
:0803B000E0F70895F894FFCF77
:00000001FF
