:100000000C94CA010C94E7010C94E7010C94E701ED
:100010000C941C080C94E7010C94E7010C94E70184
:100020000C94E7010C94E7010C94E7010C94E701B0
:100030000C94E7010C94E7010C94E7010C94CF08B1
:100040000C94E7010C94E7010C94E7010C94E70190
:100050000C94E7010C94E7010C94E7010C94E70180
:100060000C94E7010C94E7013F065B4F666D7D073A
:100070007F6F640001003200010064000100640031
:10008000640032003200320032003200640064004A
:10009000640064006400640064009600640064000E
:1000A0006400640064006400640064000100640093
:1000B00064006400640064006400640064009600EE
:1000C00032003200640001003200010064000100CF
:1000D0006400640064006400640064006400640000
:1000E00064006400640064006400640096006400BE
:1000F0006400640064004A0100004A0100004A01F3
:1001000000004A01EE017201880172014A012601D4
:1001100072014A0172014A0126014A0172018801F5
:1001200072014A012601F7009302EE014B02EE0133
:100130000000EE01B80188014A018801B801EE0112
:100140000B02B801880172014A0100004A01000057
:100150004A0100004A01EE017201880172014A0160
:10016000260172014A0172014A0126014A01720107
:10017000880172014A012601F70032004B00640039
:10018000010064000100640032004B004B00640079
:10019000640032004B006400640000006400010051
:1001A0006400010064000100DC0006014A01000057
:1001B0004A0100004A017201880172012601F7001C
:1001C00006014A010601DC000000D0000000D0005A
:1001D0000000D000000064003200320064003200F1
:1001E00032006400640032006400640032003200B7
:1001F00019001900190064006400640064003200F2
:1002000032006400320064006400320032003200C8
:100210006400640032003200640064006400640022
:10022000C800C800C800C800C800C800C800C8008E
:10023000C800C800C800C80064006400C800C80046
:100240004A01F700060126010601F700DC00DC0088
:1002500006014A0126010601F700060126014A01AE
:100260000601B801B80126015D01B80188015D01F0
:100270004A0106014A0126010601F700F7000601BE
:1002800026014A010601DC00DC004A0106012601C4
:10029000F7000601DC00D000F7004A010601260144
:1002A000F70006014A01B8019F01B302AE024F56A2
:1002B00045520047414D450013030B030403FB0265
:1002C000F302E802DE02D402CA02382E5350415231
:1002D00045203300372E5350415245203200362EF0
:1002E0005350415245203100352E53455454494E08
:1002F000475300342E5049414E4F00332E5445543D
:1003000052495300322E504F4E4700312E534E412A
:100310004B45004D454E550025031C032020202051
:10032000202020200047414D4520424F58006400C6
:100330004B006400010064000100640032003200E0
:1003400064006400640032004B00640064006400D8
:1003500064006400010064000100640006013701CC
:10036000880100008801000088019F01D2019F01DF
:100370005D0126013701880137010601D000E9003F
:1003800006010000060100000601424F58004741E7
:100390004D45000011241FBECFEFD8E0DEBFCDBF1A
:1003A00011E0A0E0B1E0E6E7F4E102C005900D92B3
:1003B000A232B107D9F725E0A2E2B1E001C01D9257
:1003C000A632B207E1F70E94F0090C94390A0C94A6
:1003D00000008EE58CBD229A239A259A209A2498B3
:1003E00008958EBD0DB407FEFDCF0895289A089597
:1003F00028980895CF93C82F0E94F60188EF0E9495
:10040000F1018C2F807F0E94F1018C2F8295807FDB
:100410000E94F101CF910C94F801CF93C82F0E9454
:10042000F6018AEF0E94F1018C2F807F0E94F1017A
:100430008C2F8295807F0E94F101CF910C94F8015E
:1004400084E30E94FA0186E30C94FA0180E30C94A1
:10045000FA01CF92DF92EF92FF920F931F93CF9307
:10046000DF930E94200284E2C82E81E0D82EF12C76
:100470008F2D869598E0980F9068E92ED82FD06838
:100480008601C0E0C03218F080EE8C0F01C08C2FC6
:1004900080680E94FA01C03210F48D2F01C08E2DA9
:1004A0000E94FA01F80180810E940D02F801818109
:1004B0000E940D02CF5F005F1F4FC03419F7F39405
:1004C000F394F2E0CF0ED11C80E1F812D1CFDF918E
:1004D000CF911F910F91FF90EF90DF90CF900895F3
:1004E00040E054E06FEF70E084E291E00C94320A57
:1004F00080E094E0E4E2F1E0DF019C011D922150F4
:100500003040E1F7089587FD57C0603408F054C0CB
:100510004130510529F0E8F042305105A1F108952C
:10052000982F96959695969520E1629FF00111245B
:10053000EC5DFE4FE90FF11D877020E830E0A90166
:1005400002C0559547958A95E2F7CA019081892B9B
:1005500032C0982F96959695969550E1659FF0013B
:100560001124EC5DFE4FE90FF11D877020E830E0AB
:10057000A90102C0559547958A95E2F7CA01809571
:100580009081892318C0982F96959695969550E15D
:10059000659FF0011124EC5DFE4FE90FF11D87709E
:1005A00020E830E0A90102C0559547958A95E2F709
:1005B000CA0190818927808308954F925F926F923C
:1005C0007F928F929F92AF92BF92CF92DF92EF92E3
:1005D000FF920F931F93CF93DF93C82ED62E742EC6
:1005E000622EC42FD0E0C81BD109D7FF03C0D1951C
:1005F000C195D109E62CF12CED18F108F7FE03C0E6
:10060000F194E194F108C71418F044244A9402C00C
:1006100044244394D61418F055245A9402C0552407
:1006200053944E018E189F08AA24BB24AE18BF080D
:10063000A8016D2D8C2D0E948302C71002C0D61414
:1006400081F0C401880F991FA816B9061CF48E18F2
:100650009F08C40C8C179D075CF78C0E9D1ED50C53
:10066000E7CFDF91CF911F910F91FF90EF90DF9037
:10067000CF90BF90AF909F908F907F906F905F9042
:100680004F900895CF93DF93982F9770E0E8F0E0B4
:1006900002C0F595E7959A95E2F7461718F4962F5C
:1006A000642F492FBE2F21303105A9F098F1223057
:1006B000310509F05EC070E09B0194E0220F331F0A
:1006C0009A95E1F7869586958695280F311D80E0ED
:1006D00090E050E03FC070E09B01E4E0220F331F48
:1006E000EA95E1F7869586958695280F311D80E07D
:1006F00090E0C42FD0E0C617D707DCF1FC01E20F71
:10070000F31FEC5DFE4F50815B2B50836F5F7F4F7B
:100710004096F1CF70E09B0154E0220F331F5A95B1
:10072000E1F7869586958695280F311D80E090E04B
:10073000C42FD0E0E095C617D707DCF0DC01A20F8C
:10074000B31FAC5DBE4F5C915E235C936F5F7F4FC8
:100750004096F1CF4617570764F0FC01E20FF31FF4
:10076000EC5DFE4FA081AB27A0836F5F7F4F40966B
:10077000F1CFDF91CF910895CF92DF92EF92FF9268
:100780000F931F93CF93DF93CDB7DEB760970FB66C
:10079000F894DEBF0FBECDBF98E0E0E0F1E0DE01EF
:1007A000199601900D929A95E1F798E0E8E0F1E052
:1007B000DE01119601900D929A95E1F7E82FE695EA
:1007C000E695E695A62FA695A695A695F0E0CA2EE5
:1007D000D12C681718F4982F862F692F21303105F6
:1007E00039F008F45CC02230310509F4BAC00DC1FB
:1007F00050E0877067709A01B4E0220F331FBA95FA
:10080000E1F72C5D3E4FEC15FD05C9F42E0F3F1F9F
:1008100009E010E00C0F1D1F080F111DA1E0B0E052
:10082000AC0FBD1FA60FB11DBD01D8019C91DB010E
:100830008C918923D9019C91892B8C931DC08901AE
:100840000E0F1F1FA9E0B0E0AC0FBD1FA80FB11D18
:100850009C91D8018C91892B8C93C9018C0D9D1D85
:1008600021E030E02C0F3D1F260F311DD9013C91B6
:10087000DC012C91232B2C93A4E0440F551FAA9547
:10088000E1F72FEF3196EC15FD050CF0BEC0CF015E
:10089000840F951F8C5D9E4FDC012C93F3CF50E0AD
:1008A00087706770EC15FD0511F59A0174E0220F51
:1008B000331F7A95E1F72C5D3E4F2E0F3F1F09E065
:1008C00010E00C0F1D1F080F111DA1E0B0E0AC0FD0
:1008D000BD1FA60FB11DBD01D8019C91DB018C91FC
:1008E00089238095D9019C9189238C9328C08A0102
:1008F00034E0000F111F3A95E1F70C5D1E4F7801AF
:10090000EE0EFF1E29E030E02C0F3D1F280F311D99
:10091000D9019C919095D7012C9192239C93C80169
:100920008C0D9D1D21E030E02C0F3D1F260F311D49
:10093000D9012C912095DC013C9123232C9324E0B8
:10094000440F551F2A95E1F73196EC15FD050CF083
:100950005CC0CF01840F951F8C5D9E4FDC011C9203
:10096000F3CF50E0877067709A0194E0220F331F35
:100970009A95E1F72C5D3E4FEC15FD05B9F42E0F6D
:100980003F1F09E010E00C0F1D1F080F111DA1E013
:10099000B0E0AC0FBD1FA60FB11DBD01D8019C91E9
:1009A000DB018C918923D9019C911AC089010E0F1A
:1009B0001F1FA9E0B0E0AC0FBD1FA80FB11D9C9197
:1009C000D8018C9189278C932C0D3D1D81E090E0FE
:1009D0008C0F9D1F860F911DDC019C91D9018C917C
:1009E00089278C9384E0440F551F8A95E1F731964F
:1009F000EC15FD0554F4CF01840F951F8C5D9E4FBF
:100A0000DC012C9120952C93F2CF60960FB6F894D0
:100A1000DEBF0FBECDBFDF91CF911F910F91FF9031
:100A2000EF90DF90CF900895CF92DF92EF92FF92F8
:100A30000F931F93CF93DF93E82EC62FD42FF22E60
:100A400087FD48C0603408F045C0842F90E08E0DCB
:100A5000911D8138910524F0D0E8DE19D12C02C017
:100A6000DD24D3948F2D90E08C0F911DCC24CA945B
:100A7000CE0C8134910524F080E4F82EFC1A09C0D4
:100A80004FEF4F0D4C0F98016C2D6D0F8E2D0E9466
:100A9000BC03DC0D98014C2F6D2F8E2D0E94BC03E2
:100AA0008EEF8C0FF80ECF5F98014F2D6C2F8E2D8F
:100AB0000E944203DD2071F098014F2D6C2F8D2F85
:100AC000DF91CF911F910F91FF90EF90DF90CF902A
:100AD0000C944203DF91CF911F910F91FF90EF9003
:100AE000DF90CF900895AF92BF92CF92DF92FF92A6
:100AF0000F931F93CF93DF93F82E680187FD26C0D5
:100B0000603420F5842F90E08F0D911D8138910580
:100B100014F040E84F19C62FD0E0CE01820F911D8E
:100B20008134910514F020E4261B5E01A20EB11C55
:100B30001FEF1F0D140FCA15DB0544F496014C2F4F
:100B4000612F8F2D0E94BC032196F5CFDF91CF91AD
:100B50001F910F91FF90DF90CF90BF90AF900895BD
:100B60002F923F924F925F926F927F928F929F92BD
:100B7000AF92BF92CF92DF92EF92FF920F931F93AB
:100B8000CF93DF9300D000D0CDB7DEB7782E662E9E
:100B9000B42E3C832B83042F10E081E090E07C0195
:100BA000E01AF10ACC24DD24C01AD10ACC0CDD1CD9
:100BB000642F660DA901872D0E948302662D6B1993
:100BC0004B815C81872D0E9483024B815C81662D65
:100BD0008B2D870D0E9483024B815C81662D872DB2
:100BE0008B190E94830233243394370C55245A9472
:100BF000570CA12CB12C88248394912C862D871915
:100C00008A83A016B1060CF050C0F7FC07C0015053
:100C1000110982E0C80ED11CEC0CFD1C8FEFA81A44
:100C2000B80A82E0880E911CE80CF91C4B815C81AB
:100C3000462C400E642D832D0E9483024B815C81E3
:100C4000642D852D0E9483024B815C81462C401AC5
:100C5000642D832D0E9483024B815C81642D852D40
:100C60000E9483024A80430C4B815C81642D872D56
:100C7000800F89830E9483024B815C81642D472C05
:100C8000401A842D0E9483022A80250C4B815C81AE
:100C9000622D89810E9483024B815C81622D842DAB
:100CA0000E94830233945A94ACCF0F900F900F9010
:100CB0000F90DF91CF911F910F91FF90EF90DF90F8
:100CC000CF90BF90AF909F908F907F906F905F90EC
:100CD0004F903F902F9008952F923F924F925F92A6
:100CE0006F927F928F929F92AF92BF92CF92DF923C
:100CF000EF92FF920F931F93CF93DF9300D01F9239
:100D0000CDB7DEB7782E562E49836901841B642F38
:100D1000660F6F5F680F452D0E94BC039981892F74
:100D200090E09B838A8301E010E0081B190B7C0193
:100D3000F194E194F108EE0CFF1C66246A94670CB0
:100D400092E0492E470CA12CB12C88248394912C3D
:100D5000852D871989838A819B81A816B906D4F5C8
:100D600017FD0AC08A819B8101979B838A8392E049
:100D7000E90EF11C0E0D1F1D8FEFA81AB80A92E0A4
:100D8000890E911C080D191D96014A81450D642D8F
:100D9000862D0E94BC032A80270C2394452D4A0DE2
:100DA0009601622D372C8A81381A832D0E94BC034C
:100DB0009601452D9A81491B642D862D0E94BC0306
:100DC0004981460D9601622D832D0E94BC036A94D1
:100DD0004394C1CF0F900F900F90DF91CF911F914F
:100DE0000F91FF90EF90DF90CF90BF90AF909F90CA
:100DF0008F907F906F905F904F903F902F900895CD
:100E0000FF920F931F93CF93DF93D82F162FF42EBB
:100E1000052F0E942602113059F038F0123059F097
:100E2000133059F4CD2FC86908C0CD2FC06805C054
:100E3000CD2FC06902C0CD2FC8688C2F0E94FA0147
:100E4000CF2DD02F8991882319F00E940D02FACF5F
:100E5000DF91CF911F910F91FF9008951F93CF9332
:100E6000DF93CDB7DEB761970FB6F894DEBF0FBE44
:100E7000CDBF182F81E1E0E1F1E0DE011196019094
:100E80000D928A95E1F70E942602AE014F5F5F4FF7
:100E9000612F80E00E94000761960FB6F894DEBFD4
:100EA0000FBECDBFDF91CF911F91089581E00E94C9
:100EB000FA018FE39CE90197F1F700C00000089563
:100EC0002FEF81EE94E0215080409040E1F700C088
:100ED00000000E94E90180E30E94FA0182E00E9482
:100EE000FA010E94560786E00E94FA018CE00C94F9
:100EF000FA015C980895CF92DF92EF92FF920F93E0
:100F00001F93CF93DF938C01D62F5B980E947907B4
:100F1000C0E0CD17E9F087E0C82ED12C7801EC0EA7
:100F2000F11C0E947907F701808190E00C2C02C02F
:100F3000959587950A94E2F780FF02C05A9A01C0FE
:100F40005A985C9AF1E0CF1AD10858F7CF5FE1CFF9
:100F50005B9ADF91CF911F910F91FF90EF90DF90FF
:100F6000CF900C947907CF93DF9300D01F92CDB729
:100F7000DEB719821A821B828AB18C618AB95B98AA
:100F80000E9479075A988FE39FE10197F1F700C01B
:100F9000000063E0CE0101960E947B070F900F9046
:100FA0000F90DF91CF9108950C94B3070F931F9387
:100FB000CF93DF9300D01F92CDB7DEB7883E23E0FA
:100FC0009207E8F419821A821B8222E00AE010E0FC
:100FD000B8010E94F509FC01E859FF4FE491A1E036
:100FE000B0E0AC0FBD1FA20FB11DEC93CB0121509F
:100FF000009771F763E0CE0101960E947B070F9086
:101000000F900F90DF91CF911F910F910895389815
:101010003A983B983C983998E8E6F0E020812260C5
:101020002083ECE6F0E020812F612083909325055A
:1010300080932405789408951F920F920FB60F9213
:1010400011242F933F934F935F936F937F938F93CD
:101050009F93AF93BF93EF93FF9380916C00807E3B
:1010600080936C00309B11C08FE39CE90197F1F7EE
:1010700000C00000309B09C0E0912405F0912505D7
:1010800061E070E081E090E00995329B11C08FE350
:101090009CE90197F1F700C00000329B09C0E09184
:1010A0002405F091250561E070E082E090E009956B
:1010B000339B11C08FE39CE90197F1F700C000005A
:1010C000339B09C0E0912405F091250561E070E0B3
:1010D00083E090E00995349B11C08FE39CE9019770
:1010E000F1F700C00000349B09C0E0912405F091A5
:1010F000250561E070E084E090E00995319B11C026
:101100008FE39CE90197F1F700C00000319B09C013
:10111000E0912405F091250561E070E085E090E024
:10112000099580916C008F6180936C00FF91EF9125
:10113000BF91AF919F918F917F916F915F914F91EF
:101140003F912F910F900FBE0F901F901895559AB9
:1011500084B5826184BD85B5856085BDEEE6F0E02D
:1011600080818460808318BC78940895559A08958E
:10117000A0E0B0E09C01AD018BE0220F331F441FC3
:10118000551F8A95D1F760E074E284EF90E00E94E9
:10119000090A2150209322010895559808951F921D
:1011A0000F920FB60F9211248F9316BC80912201DB
:1011B00088BD8F910F900FBE0F901F9018950E94C1
:1011C000A7080C94CD080C94B608CF93DF93EC01DC
:1011D0000E94B608CE01DF91CF910C94B8080C9410
:1011E000CD0824E1FC0111922A95E9F70C942B0A11
:1011F000009741F0EFE9FFE03197F1F700C0000000
:101200000197F6CF08950E9460070E9456072FEFBE
:1012100089E698E1215080409040E1F700C000004D
:101220000E9478020E9429020E94D4070E94DF08CF
:1012300080E00E942E0781E00E942E0782E00E943B
:101240002E0783E00C942E070E942D09FFCF0597EF
:1012500018F481E08093230108956F927F928F921A
:101260009F92AF92BF92CF92DF92EF92FF920F9335
:101270001F93CF93DF93CDB7DEB764970FB6F89483
:10128000DEBF0FBECDBF87E299E00E9407080E9433
:1012900056070E9478020E9429026EE873E0CE0190
:1012A00001960E94F108AE014F5F5F4F61E082E05E
:1012B0000E9400076AE873E0CE0101960E94F108DF
:1012C000AE014F5F5F4F62E084E00E94000721E0C3
:1012D00030E04EE16FE18CE30E946C060E9429022F
:1012E000712CC12CD12CE12CF12C00E010E0812CD0
:1012F000912CA12CB12C662463948091230181113F
:101300004AC0A814B904E0F09801220F331FF90174
:10131000E45AFC4F85919491F901E25DFC4F859070
:101320009490880C991C0E94E5080F5F1F4F0831AC
:10133000110520F00E94EF0800E010E0A12CB12C74
:1013400085E6C816D104D0F098EEE91693E0F906C8
:1013500020F48FEFE81AF80A02C0E12CF12CC70143
:101360000E94D6077624272D30E04EE16FE18CE312
:101370000E946C060E942902C12CD12C9FEFA91A51
:10138000B90A8FEFC81AD80A8FE99FE00197F1F7E1
:1013900000C00000B2CF0E94EF0881E00E942E073B
:1013A00082E00E942E070E9478020E94290280E0BB
:1013B00090E00E94D60764960FB6F894DEBF0FBE89
:1013C000CDBFDF91CF911F910F91FF90EF90DF90F4
:1013D000CF90BF90AF909F908F907F906F90089527
:1013E0000E9403090E942409FDCFAA1BBB1B51E1E7
:1013F00007C0AA1FBB1FA617B70710F0A61BB70B85
:10140000881F991F5A95A9F780959095BC01CD0129
:101410000895A1E21A2EAA1BBB1BFD010DC0AA1F35
:10142000BB1FEE1FFF1FA217B307E407F50720F04D
:10143000A21BB30BE40BF50B661F771F881F991FC8
:101440001A9469F760957095809590959B01AC0111
:10145000BD01CF010895FB01DC0105900D92002034
:10146000E1F70895DC0101C06D9341505040E0F771
:061470000895F894FFCF7F
:10147600FF7F3F1F0F07030180C0E0F0F8FCFEFF6F
:101486002020202020202020202020202020202056
:02149600000054
:00000001FF
